:020000040800F2
:10000000E8170020ED010008AF1800083D170008B0
:10001000AD18000839030008172000080000000090
:10002000000000000000000000000000A11A00080D
:100030003B03000800000000B1180008A31A0008E4
:10004000070200080702000807020008070200086C
:10005000070200080702000807020008070200085C
:10006000070200080702000807020008070200084C
:10007000070200080702000807020008070200083C
:10008000070200080702000807020008070200082C
:10009000070200080702000807020008070200081C
:1000A000070200080702000807020008070200080C
:1000B00007020008070200080702000807020008FC
:1000C00007020008070200080702000807020008EC
:1000D00007020008070200080702000807020008DC
:1000E00007020008070200080702000807020008CC
:1000F00007020008070200080702000807020008BC
:1001000007020008070200080702000807020008AB
:10011000070200080702000807020008070200089B
:10012000070200080702000807020008070200088B
:10013000070200080702000807020008070200087B
:10014000070200080702000807020008070200086B
:10015000070200080702000807020008070200085B
:10016000070200080702000807020008070200084B
:10017000070200080702000807020008070200083B
:10018000070200080702000807020008070200082B
:10019000070200080000000007020008070200082C
:1001A000070200080702000807020008070200080B
:1001B00007020008070200080702000807020008FB
:1001C00007020008070200080702000807020008EB
:1001D0000702000807020008DFF80CD000F09AF8C8
:1001E00000480047F1260008E8170020064880472D
:1001F00006480047FEE7FEE7FEE7FEE7FEE7FEE70C
:10020000FEE7FEE7FEE7FEE7391B0008D90100081C
:100210002DE9F05F0546002092469B46884606463B
:10022000814640241BE0284641464746224600F0CE
:1002300060F853465A46C01A914110D311461846E9
:10024000224600F047F82D1A67EB01084F46224678
:100250000120002100F03EF817EB00094E41201E5E
:10026000A4F10104DFDC484631462A464346BDE896
:10027000F09F40EA01039B0703D009E008C9121F61
:1002800008C0042AFAD203E011F8013B00F8013B50
:10029000521EF9D27047D2B201E000F8012B491E7C
:1002A000FBD270470022F6E710B513460A46044613
:1002B0001946FFF7F0FF204610BD30B50446002078
:1002C000034600E05B1C934203D2E05CCD5C401B24
:1002D000F8D030BD202A04DB203A00FA02F10020D9
:1002E00070479140C2F1200320FA03F31943904074
:1002F0007047202A04DB203A21FA02F000217047DF
:1003000021FA02F3D040C2F120029140084319467D
:1003100070470000064C074D06E0E06840F001031E
:1003200094E8070098471034AC42F6D3FFF758FF23
:10033000EC2800080C290008FEE7704772B6FEE7BB
:100340002DE9FC4FDFF8A0A1002301250AF1040BE1
:1003500003244FF00F0C0BF1040EBDE005FA03F679
:1003600032406FD04F68012F05D0022F03D0112FDC
:1003700001D0122F17D1D0F808905F0004FA07F8C7
:1003800029EA08090097D1F80C8008FA07F848EA2A
:100390000908C0F808804768B7430E79C6F300160D
:1003A0009E403E434660C6684FEA430804FA08F799
:1003B000BE4301978F6807FA08F73743C7604E6856
:1003C000022E01D0122E13D1DE0800EB8606009615
:1003D000366A5F07FF0E0CFA07F926EA0906D1F81C
:1003E000109009FA07F949EA0609009EC6F820901C
:1003F0000668019FBE430F7907F0030707FA08F765
:10040000374307604E68F60065D5384E376E47F0C3
:1004100001073766366E23F0030706F001060096E3
:10042000334E3E44B146B6689F074FEA17780CFA40
:1004300008F7BE43B0F1904F05D02E4FB84204D11B
:10044000012717E047E0002714E02B4FB84201D105
:1004500002270FE0294FB84201D103270AE0284FB5
:10046000B84201D1042705E0264FB84201D1052743
:1004700000E0062707FA08F73743C9F80870DAF8EA
:1004800000605746D1F8048096435FEAC83800D52B
:1004900016433E60DBF800605F46D1F80480964367
:1004A0005FEA883800D516433E60DEF80060774684
:1004B000D1F8048096435FEAC82800D516433E6011
:1004C000094F0C373E68D1F8048096435FEA8828CC
:1004D00000D516433E605B1C0A6832FA03F67FF4CF
:1004E0003DAFBDE8FC8F0000000401400010024059
:1004F000000001400004004800080048000C0048CB
:1005000000100048001400480AB181617047816200
:100510007047000001488068704700000400002018
:1005200002488168426811448160704704000020DD
:1005300010B50024032000F065F8002000F008F852
:1005400008B1012401E000F025F8204610BD0000AC
:1005500070B50E4E05460024706898B14FF47A715C
:10056000B1FBF0F00A490968B1FBF0F000F0A2FF1E
:1005700040B9102D06D200222946501E00F022F864
:10058000356000E00124204670BD0000040000201A
:10059000100000200A4882B0016E41F0010101669E
:1005A000016E01F001010091816D41F08051816582
:1005B000806D00F08050009002B000F013B9000090
:1005C00000100240F0B40E4B1B680C46C3F302232C
:1005D000C3F10705042D00D90425191D072901D2EF
:1005E000002300E0DB1E012606FA05F1491E21402A
:1005F00099409E40761E16403143F0BC01F01ABE71
:100600000CED00E0064900F0070208684FF6FF0312
:10061000184040EA0220034A104308607047000077
:100620000CED00E00000FA0501220168C0F8E822A4
:10063000002280F8E02231F8540F40F001000880D9
:10064000088840F0020008801046704770B586B0F8
:10065000040004D094F8A902002518B107E0012095
:1006600006B070BD84F8A852204600F049F8032077
:1006700084F8A902206801F0C6FC002001260EE0E3
:1006800000EB800104EBC10181F8296001F8280F1B
:10069000C881CD700D614D61401CC0B28D61616833
:1006A0008142EDD8002011E000EB800104EBC10194
:1006B00081F8695181F8680181F86B51C1F878516E
:1006C000C1F87C51401CC0B2C1F8805161688142C0
:1006D000EAD8142204F110016846FFF7CAFD94E835
:1006E0000F0001F087FC84F8245084F8A962E069C7
:1006F000012802D12046FFF797FF0020B0E7000055
:1007000008B500680649884208D10648816D41F461
:1007100000018165806D00F40000009008BD0000BC
:10072000005C0040001002402B492C4B0A6832212B
:100730004A432B4940B1B0F5007F086829D020F426
:10074000C06040F480602CE00868C0F341200228BB
:1007500004D051F8800F20F4807022E0D1F880009E
:1007600020F48070C1F88000086820F4C06040F474
:1007700000700860B2FBF3F0401C00E0401E4A69C4
:10078000520501D50028F9D1486940050AD5032052
:100790007047C0F34120022806D051F8800F40F482
:1007A0008070086000207047D1F8800040F48070AD
:1007B000C1F88000086820F4C06040F40070086050
:1007C000B2FBF3F0401C00E0401E4A695205DBD545
:1007D0000028F9D1D8E700001000002040420F00A7
:1007E000007000400248816841F480418160704798
:1007F000007000402DE9F84F17468B460446FFF77E
:1008000089FE824694F8400001280ED0012684F823
:10081000406094F841004FF00008012807D00225FD
:1008200084F840802846BDE8F88F0220FBE7C4F832
:1008300044804FF0020984F8419053460022202161
:100840002046009701F008F90500E9D10022594639
:10085000204601F02EF8DBF8240058B95346012257
:1008600002212046009701F0F7F80500D8D1216851
:10087000C1F80C9084F84160D2E70000F8B5044656
:10088000FFF748FE06465CB194F84000012809D005
:10089000012784F8407094F84100002520B10BE056
:1008A0000120F8BD0220F8BD84F84050204600F039
:1008B00041F841F28830A06420680168A2686FF0B6
:1008C000FF0321F4706103EB022211430160A06C6D
:1008D0000090334600222021204601F0BDF808BBDD
:1008E000E269E16823791143226A42EA0362114313
:1008F000226813680D4E334019431160D4E9051284
:100900001143226853680A4E3340268A43EA06435D
:100910001943516021680A6842F001020A60656467
:1009200084F8417084F84050F8BD00002FFFFF00AC
:10093000FEF8E0FF10B586B0044614216846FFF7C4
:10094000B1FC1349206888421FD11248016D41F45F
:1009500080710165016D01F480710591C16C41F0F8
:100960001001C164C06C694600F0100005904FF49E
:100970007C40009002200190002002900320039010
:100980000A2004900448FFF7DBFC06B010BD00000D
:10099000001000A000100240001000482DE9F84FA0
:1009A00015460E460446FFF7B5FD8246206881696C
:1009B00094F8402000F12009012A0DD0012784F885
:1009C000407094F841204FF00008012A06D0022020
:1009D00084F84080BDE8F88F0220FBE7C4F844802B
:1009E000A6B3222284F841200269521CA263026944
:1009F000521C62632663426922F0406242F08062C8
:100A00004261206881610EE00621204601F024F851
:100A1000C8B999F80000216B0870206B401C206356
:100A2000A06B401EA063A06B53464FF001020095DF
:100A30000028E9D14FF00201204601F00DF810B96D
:100A400022680221D16084F84170C1E7FFE7606C41
:100A500040F0080060640120BAE700002DE9F84F7B
:100A600015460E460446FFF755FD8246206894F869
:100A7000401000F1200901290ED0012784F84070B0
:100A800094F841104FF00008012907D05FF00200F0
:100A900084F84080BDE8F88F0220FBE7C4F844806A
:100AA00086B3122184F841100169491CE162016991
:100AB000491CA1626662416921F0406141610EE01A
:100AC0000421204600F0C8FFC8B9606A017889F89F
:100AD0000010606A401C6062E06A401EE062E06AEA
:100AE00053464FF0010200950028E9D14FF0020172
:100AF000204600F0B1FF10B922680221D16084F8CD
:100B00004170C5E7FFE7606C40F0080060640120B9
:100B1000BEE700002DE9F843044600680026BB4DFF
:100B200000035ED5A86D0027C00008D4A86D40F072
:100B30008050A865A86D012700F080500090DFF874
:100B4000D092D9F8001041F48071C9F80010FFF775
:100B5000E1FC804606E000BFFFF7DCFCA0EB0800EC
:100B600002282BD8D9F80000C005F5D5D5F890009B
:100B700010F4407014D0216D814211D0D5F890004E
:100B8000D5F8901020F4407041F48031C5F89010F1
:100B9000D5F8901021F48031C5F89010C5F8900078
:100BA000C00711D0FFF7B6FC804641F2883907E054
:100BB000FFF7B0FCA0EB0801494501D903260BE083
:100BC000D5F890008007F3D5D5F89000216D20F47A
:100BD00040700843C5F890001FB1A86D20F0805008
:100BE000A8652078C00707D0D5F88800616820F094
:100BF00003000843C5F888002078800707D5D5F89A
:100C00008800A16820F00C000843C5F8880020780F
:100C1000400707D5D5F88800E16820F03000084388
:100C2000C5F888002078000707D5D5F88800216925
:100C300020F0C0000843C5F888002078C00607D51A
:100C4000D5F88800616920F440700843C5F8880031
:100C50002078800607D5D5F88800A16920F4406087
:100C60000843C5F888002078400607D5D5F88800E5
:100C7000E16920F440500843C5F888002078000658
:100C800007D5D5F88800216A20F440400843C5F80C
:100C900088002088C00507D5D5F88800616A20F44F
:100CA00040300843C5F888002068800307D5D5F890
:100CB0009C00A16A20F003000843C5F89C0020882E
:100CC000800507D5D5F88800E16A20F44020084364
:100CD000C5F88800208840050FD5D5F88800216B1D
:100CE00020F440100843C5F88800206BB0F5801F41
:100CF00003D1E86840F48010E860208800050FD533
:100D0000D5F88800616B20F440000843C5F88800DE
:100D1000606BB0F5800F03D1E86840F48010E860A4
:100D20002088C0040FD5D5F88800A16B20F0407052
:100D30000843C5F88800A06BB0F1807F03D1E86854
:100D400040F48010E86020884FF0006180040ED5E8
:100D5000D5F88800E26B20F040601043C5F88800A9
:100D6000E06B884203D1E86840F48010E860208896
:100D700040040ED5D5F88800226C20F04060104366
:100D8000C5F88800206C884203D1E86840F48010E0
:100D9000E860208800040FD5D5F88800616C20F049
:100DA00040500843C5F88800606CB0F1805F03D103
:100DB000E86840F48030E8602068C0030FD5D5F8BB
:100DC0008800A16C20F040400843C5F88800A06C62
:100DD000B0F1804F03D1E86840F48030E8602068CB
:100DE00040030FD5D5F89C00E16C20F44010084377
:100DF000C5F89C00E06CB0F5001F03D1E86840F432
:100E00008010E8603046BDE8F88300000010024022
:100E1000007000402DE9F0470E4605004FF0000736
:100E200025D0DFF8AC81D8F8000000F00F00B04208
:100E30000CD2D8F8001021F00F013143C8F800108F
:100E4000D8F8000000F00F00B04210D12968614CC2
:100E5000C80741F2883A5AD06868DFF87C910328C5
:100E600008D0022820682DD0400500282CDB012066
:100E7000BDE8F08720688001F9D5E06800F0030242
:100E8000E068C0F30310401C032A19D0534A00BF86
:100E9000B2FBF0F0E268C2F306225043E268C2F30C
:100EA0004162521C5200B0FBF2F0484517D9A068CD
:100EB00010F0F00F0CD0880711D5A86840B10EE0F3
:100EC000474AE5E78003D0E700F0B6F8484506D981
:100ED000A06820F0F00040F08000A0608027A068AB
:100EE000696820F003000843A060FFF713FB814608
:100EF00006E000BFFFF70EFBA0EB090151453AD811
:100F0000A068696800F00C00B0EB810FF2D128688E
:100F1000810714D5400703D5A06840F4E060A060C5
:100F20002878000705D5A06820F4605040F4E06000
:100F3000A060A068A96820F0F000084304E0802FBA
:100F400003D1A06820F0F000A060D8F8001040465F
:100F500001F00F01B14216D9016821F00F013143B0
:100F60000160FFF7D7FA074607E000BFFFF7D2FAA4
:100F7000C11B514501D903207AE7D8F8000000F0E1
:100F80000F00B042F2D12878400705D5A068E96883
:100F900020F4E0600843A0602878000706D5A06828
:100FA000296920F4605040EAC100A06000F044F8D4
:100FB000A1680C4AC1F30311515C01F01F01C84044
:100FC0000949086009480068BDE8F047FFF7C0BA62
:100FD000002002400010024000B4C4040024F400C9
:100FE00000366E01D4280008100000200400002004
:100FF0000548064900688968054AC1F30221515C29
:1010000001F01F01C840704710000020001002408E
:10101000E42800080548064900688968054AC1F3C4
:10102000C221515C01F01F01C84070471000002030
:1010300000100240E4280008184910B58868C0F381
:1010400081021748012A0BD08A68164BC2F381022D
:10105000022A06D08A68C2F38102032A03D0002044
:1010600010BD184610BDCA6802F00304CA68C2F376
:101070000312521C032C02D0B0FBF2F001E0B3FBD0
:10108000F2F0CA68C968C2F306225043C1F3416155
:10109000491C4900B0FBF1F010BD000000100240F7
:1010A0000024F40000366E012DE9F84304007AD0E4
:1010B0002078FA4DC00747D0A868E96800F00C0016
:1010C00001F003010C2802D0082817D001E0032901
:1010D00014D06068B0F5803F17D0B0F5A02F286815
:1010E00017D020F480302860286820F48020286001
:1010F0006068E0B1FFF70EFA064614E02868800346
:1011000022D560680028D2D01EE0286840F48030E4
:10111000EDE740F480202860F7E700BFFFF7FAF919
:10112000801B642870D828688003F7D50CE0FFF78F
:10113000F1F9064605E000BFFFF7ECF9801B6428D3
:10114000F0D828688003F7D4207880074CD5A868A9
:10115000E96800F00C0001F003010C2802D004281B
:101160000DD001E002290AD0E068002828682BD0C1
:1011700040F480702860FFF7CDF9064619E0286832
:10118000400502D5E068002891D06868217C20F0F5
:10119000FE4040EA01606860C1480068FFF7D8F986
:1011A000002800D120E076E1FFF7B4F9801B022887
:1011B000B8D828684005F7D56868217C20F0FE4043
:1011C00040EA016068600FE020F480702860FFF75B
:1011D000A1F9064605E000BFFFF79CF9801B022835
:1011E000A0D828684005F7D42078000729D5606981
:1011F0000028D5F8940013D040F00100C5F8940001
:10120000FFF788F9064606E090E000BFFFF782F995
:10121000801B022886D8D5F894008007F6D510E008
:1012200020F00100C5F89400FFF774F9064604E0C9
:10123000FFF770F9801B022878D8D5F89400800752
:10124000F6D42078400761D5A86D0026C00008D4E8
:10125000A86D40F08050A865A86D012600F0805070
:10126000009090480168C90511D40168804641F496
:1012700080710160FFF74EF9074604E0FFF74AF975
:10128000C01B022852D8D8F80000C005F6D5A068C7
:10129000012815D00528D5F8900016D020F00100BF
:1012A000C5F89000D5F8900020F00400C5F8900033
:1012B000A06841F28838B8B1FFF72CF907460EE074
:1012C000D5F8900040F00100F0E740F00400C5F8C8
:1012D0009000F5E7FFF71EF9C11B414526D8D5F868
:1012E00090008007F6D50CE0FFF714F9074604E0FC
:1012F000FFF710F9C11B414518D8D5F890008007B9
:10130000F6D41EB1A86D20F08050A8652078800624
:1013100029D5A0690028D5F8980013D040F0010025
:10132000C5F89800FFF7F6F8064606E077E000BF3C
:10133000FFF7F0F8801B022877D8D5F898008007CF
:10134000F6D510E020F00100C5F89800FFF7E2F8AC
:10135000064604E0FFF7DEF8801B022865D8D5F8C2
:1013600098008007F6D4E069F0B3A968C1F3810161
:10137000032961D00228286820F0807028600BD0F3
:10138000E86820F00300E860E86847490840E86042
:10139000FFF7C0F804464BE0FFF7BCF8064604E050
:1013A000FFF7B8F8801B02283FD828688001F7D4DF
:1013B000F4E908016FF00F0202EB01110843218AE2
:1013C0005204490802EB4151A26841EA0221084354
:1013D000217D4FF07E42490802EB41610843217BA9
:1013E00040EAC160E96800E062E0304A1140084329
:1013F000E860286840F080702860E86840F08070FD
:10140000E860FFF787F8044605E000BFFFF782F8C1
:10141000001B022809D828688001F7D548E004E0BD
:10142000FFF778F8001B022802D90320BDE8F883F3
:1014300028688001F4D43BE00128F7D0E868226AEC
:1014400000F00301914226D1616A00F0F002090127
:10145000103991421FD1A26A00F4FE41B1EB022F74
:1014600019D194F82C2000F07841B1EBC26F12D161
:10147000218E00F4C00249084905A1F500119142EE
:1014800009D194F8341000F0C06049084906A1F170
:10149000007181420CD00120C8E70000001002401A
:1014A0000400002000700040FFFFEEFE0C809F0152
:1014B0000020BBE710B5401EB0F1807F01D30120B2
:1014C00010BD4FF0E02460610F21601700F0B2FE04
:1014D0000020A06107202061002010BD90F880103E
:1014E000012918D0012180F880102421C0F884102F
:1014F00050F8641B0A680B6823F001030B6022F0AC
:1015000000510022026050F8643C19602021016201
:101510000277104670470220704770B5044690F875
:10152000800001281DD0012084F880002420C4F808
:10153000840020680568026822F0010202602068C9
:10154000826822F060620A438260204600F0FCFA62
:10155000206805602020C4F88400002084F8800002
:1015600070BD022070BD70B5044690F8800001285F
:101570001DD0012084F880002420C4F88400206855
:101580000568026822F0010202602068826822F089
:1015900060420A438260204600F0D6FA2068056067
:1015A0002020C4F88400002084F8800070BD022050
:1015B00070BD10B5040003D0D4F8840010B107E06A
:1015C000012010BD002084F88000204600F026F89D
:1015D0002420C4F884002068016821F00101016022
:1015E000204600F067FB0128EBD0A06A10B120462E
:1015F00000F0CCFA2068416821F4904141602068F5
:10160000816821F02A0181602068016841F00101B0
:1016100001602046BDE8104000F01CBB10B586B04C
:10162000044614216846FEF73DFE134920688842AF
:1016300020D11248016E41F480410166016E01F42F
:1016400080410591C16C41F00101C164C06C6946E3
:1016500000F0010005904FF4C0600090022001905E
:101660000020029003200390072004904FF0904048
:10167000FEF766FE06B010BD0038014000100240C3
:101680002DE9F8430446D0F884001F4616460D465F
:10169000202851D1DDB1D6B194F8800001284BD07B
:1016A000012084F880004FF00008C4F88C802120CD
:1016B000C4F884001834FEF72DFFA6878146E6871C
:1016C00054F8100C183CB0F5805F03D004E0012002
:1016D000BDE8F883206920B12E46002584F880807B
:1016E00010E00026FAE78021204600F031FCB8B96E
:1016F000C6B116F8010B21688862B4F85600401E86
:10170000A4F85600B4F856004B464FF0000200977C
:101710000028E8D14FF04001204600F019FC30B11C
:101720000320D5E735F8020BC0F30800E3E72020DB
:10173000C4F884000020CBE70220C9E7FEE70000E0
:1017400030B587B014216846FEF7ACFD1D48C16C6A
:1017500041F01001C164C16C01F010010591C16C30
:1017600041F00401C164C16C01F004010591C16C38
:1017700041F02001C164C16C01F020010591C16CF0
:1017800041F00101C164C06C0F4D00F001000590F3
:10179000012228212846FEF7B7FE00240420CDE9C7
:1017A0000004694628460294FEF7CAFD28200090EE
:1017B0000120CDE90104694628460394FEF7C0FDE7
:1017C00007B030BD00100240001000480E4810B5B0
:1017D0000C4901600421416081601021C160172122
:1017E00001614FF44071416100218161C161016279
:1017F000FFF744F8002803D0BDE81040FEF79EBD77
:1018000010BD0000001000A018100020184810B5EE
:10181000164901604FF4E1314160002181600C22E2
:10182000C160C0E904128161C161016241628162EB
:10183000FFF7BFFE08B1FEF781FD00210C48FFF75E
:1018400092FE08B1FEF77AFD00210948FFF765FE18
:1018500008B1FEF773FD0648FFF740FE002803D0ED
:10186000BDE81040FEF76ABD10BD00000038014021
:10187000641000200C4810B50A490160082141603D
:10188000022181600161002141618161C1610162C8
:10189000FEF7DCFE002803D0BDE81040FEF74EBD89
:1018A00010BD0000005C0040F4100020FEE7FEE7E1
:1018B0007047F0B54B6A4FF040652BB1AA4203D098
:1018C0008B6A04685B1E23618C690B6A002C57D0FD
:1018D0005BB304688B68E361CC69B4B1D1E90B36C2
:1018E00033434F6A4E6B3E4333438E8A43EA86430B
:1018F0000E6933430E6A3343CE68334323438C6906
:1019000024E0006849688161F0BDD1E90B342343CC
:101910004D6A4C6B2C4323438C8A43EA84430C6905
:1019200023430C6A23438C6923E0CE69BEB1D1E91D
:101930000B373B43D1F824C04F6B47EA0C073B43BE
:101940008F8A43EA8743CF683B43334323430C6882
:101950002343046813436361AA42D2D1F0BDD1E9A5
:101960000B352B434E6A4D6B35432B438D8A43EA2F
:1019700085430968234300680B4313434361F0BD6B
:101980003BB304688B68E361CC6994B1D1E90B3651
:1019900033434F6A4E6B3E4333438E8A43EA86435A
:1019A0000E6933430E6A3343CE68334323438C6955
:1019B000CEE7D1E90B3423434D6A4C6B2C432343D0
:1019C0008C8A43EA84430C6923430C6A8969234364
:1019D000D1E7CC6964B1D1E90B3633434F6A4E6B22
:1019E0003E4333438E8A43EA8643CE683343AFE7B0
:1019F0004B6A002BC3D0D1E90B452C434D6B898A30
:101A00001D432C43006844EA814111434161F0BD0C
:101A100030B58FB00DF1200CDDE91245CDE90001A4
:101A20000020CDE904024FF40051CDE902018CE819
:101A300031000B900C904911CDE906130D9041F245
:101A4000883269460348FEF7D5FE002800D0012001
:101A50000FB030BD181000202DE9F0419846164611
:101A60000F460446069D08E0681C06D0FEF752FDAE
:101A7000A0EB0800A8420AD84DB120688068384021
:101A800000D00120B042EFD10020BDE8F081042059
:101A900084F84100606C40F0010060640120F4E7CC
:101AA0007047FEF73DBD000010B5A8B0382115A85D
:101AB000FEF7F8FB142123A8FEF7F4FB5421684637
:101AC000FEF7F0FB0020FEF72FFE212015904FF4CB
:101AD0008030169001201B900220032406211C90C8
:101AE000CDE91D415521CDE91F102190229015A867
:101AF000FFF7DAFA08B172B6FEE70F20CDE923044A
:101B0000002425942694042123A82794FFF782F922
:101B100008B172B6FEE70748CDE900040F946846A5
:101B20001394FEF7F7FF002801D072B6FEE728B045
:101B300010BD0000012004000248016841F470015A
:101B40000160704788ED00E030B5416EB9B10268C0
:101B500091689268C1F342610B4B520F9C5CE500A7
:101B600003F10804A25CB5FBF2F2A0F86A205A5C0B
:101B7000615CD200B2FBF1F1A0F8681030BD012128
:101B8000A0F86A10F8E70000C428000890F82810B0
:101B9000C90706D001684A68C36A22F400321A43B2
:101BA0004A6090F82810890706D501684A68036BD7
:101BB00022F480321A434A6090F82810490706D56B
:101BC00001684A68436B22F480221A434A6090F805
:101BD0002810090706D501684A68836B22F4004281
:101BE0001A434A6090F82810C90606D501688A6829
:101BF000C36B22F480521A438A6090F82810890639
:101C000006D501688A68036C22F400521A438A6080
:101C100090F82810490611D501684A68436C22F4EF
:101C200080121A434A60416CB1F5801F06D10168E9
:101C30004A68836C22F4C0021A434A6090F8281064
:101C4000090606D501684A68C06C22F400220243E6
:101C50004A607047F8B500260446C0F88C60FEF76D
:101C600059FC0546206800686FF07E47000708D5DC
:101C70002B4600224FF400112046009700F068F92F
:101C800060B92068006840070AD52B4600224FF44F
:101C900080012046009700F05BF908B10320F8BDF1
:101CA0002020C4F88400C4F8880044F86C6F002039
:101CB0002675F8BD2DE9F041044601688068226967
:101CC000E3691043626900251A431043DFF850C2EC
:101CD0000A68944B1A4002430A6020684168E2682F
:101CE00021F44051114341602168A069614501D050
:101CF000226A10438A688C4B1A4002438A6020682B
:101D0000C16A626A21F00F011143C16287492368E9
:101D100087488B420DD1D0F8880010F0030006D020
:101D2000012867D0022854D0032851D164E0012053
:101D30004FE080498B420BD1D0F8880010F00C00A6
:101D400047D0042845D0082852D00C2840D153E071
:101D500079498B420BD1D0F8880010F0300038D090
:101D6000102847D0202843D0302831D144E073498F
:101D70008B420BD1D0F8880010F0C00029D0402849
:101D800038D0802834D0C02822D135E06C498B422D
:101D90000ED1D0F8880010F440701AD0B0F5807FD2
:101DA00028D0B0F5007F23D0B0F5407F10D123E0DC
:101DB00063450DD1D0F8880010F4406009D0B0F52B
:101DC000806F17D0B0F5006F12D0B0F5406F13D010
:101DD00010205C4A5C4F00264FF40041634539D126
:101DE00060B102280DD004280DD0082831D10EE0B2
:101DF0000220EEE70420ECE70820EAE7FFF7F8F816
:101E000003E0114603E0FFF717F901007DD0606A97
:101E100037F810206768B1FBF2F007EB4703834205
:101E20006CD8B0EB073F69D8002308461946FEF787
:101E3000EFF9090241EA10610202780810187141B5
:101E40003A460023FEF7E4F9404AA0F5407191427A
:101E500059D953E0E3694FF6EF788B422DD1092829
:101E60004CD2DFE800F005080D4B274B4B4B0E0022
:101E7000FFF7BEF801E0FFF7CDF8010001D144E023
:101E80001146606A37F81000B1FBF0F0410060685D
:101E900001EB5001B1FBF0F080B2A0F1100141451F
:101EA0002CD84FF6F0710140C0F342000143206886
:101EB000C1602AE0FFF7C0F8DFE709281ED2DFE89B
:101EC00000F005080D1D1F1D1D1D0E00FFF790F8E9
:101ED00001E0FFF79FF8010001D116E01146606AAA
:101EE00037F81000B1FBF0F1606801EB5001B1FB75
:101EF000F0F080B2A0F11001414504D9012504E0C1
:101F0000FFF79AF8E7E72168C8600120A4F86A00A3
:101F100024F8680F2846A660E660BDE8F08100005E
:101F200000800040F369FFCFFFF4FF11003801404B
:101F3000001002400044004000480040004C0040B7
:101F4000005000400024F400AC280008FFFC0F0003
:101F50002DE9F0479A4617460E4604464FF0000911
:101F60004FF02008089D39E0681C37D0FEF7D2FA00
:101F7000A0EB0A00A84222D80DB3206801684907E7
:101F80002CD5C069C043000528D421684FF40060F7
:101F900008622068016821F4D071016020688168BE
:101FA00021F001018160C4F88480C4F88880C4F8FD
:101FB0008C8000BF84F880900320BDE8F087206803
:101FC000016821F4D07101602068816821F001016D
:101FD0008160C4F88480C4F88880EBE72068C06919
:101FE00036EA000004D00020B842BDD00020E4E76B
:101FF0000120F9E7012120F8401F002101808180A4
:1020000001820846704730F8401F4BF680729143BA
:10201000018000207047FEE77CB500240126CDE951
:10202000004605462346224621460620FFF7F0FCDF
:1020300000F03CF8CDE90046B302002229462020FA
:10204000FFF7E6FCBDE87C4000F030B81CB5044664
:102050004FF04070CDE900024FF4806308226B20FE
:10206000FFF7D6FC41F2883221460348FEF796FC82
:10207000002800D001201CBD181000200EB5022140
:10208000C805CDE900018313002211469020FFF717
:10209000BFFC41F2883202A90348FEF77FFCBDF87D
:1020A000080040BA0EBD000018100020FEB5012443
:1020B0008DF80840250641F288360CE00023CDE972
:1020C00000541A4619460520FFF7A2FC324602A921
:1020D0000348FEF763FC9DF80800C007EED1FEBD83
:1020E000181000202DE9F05FC1F30B060F0BC6F5A9
:1020F0008054DFF88480894683461546A24200D882
:10210000144639038A464FF480524046FFF79EFF3B
:10211000002005E0321818F80210FF2902D1401CF7
:10212000A042F7D3A04220D25046FFF775FF00200F
:1021300006E000BF1BF800308219401C08F802308E
:10214000A042F7D351464FF48052404600F016F8B3
:10215000A5420ED0A344A1442D1B00264FF4805469
:102160007F1CA542CDD82C46CBE72246494658468F
:10217000ECE7BDE8F09F0000180000202DE9F041D9
:102180000746C8B2C0F580740E461546A24200D874
:1021900014464FF4807822463146384600F00CF859
:1021A000A54207D0274426442D1B4446A542F2D819
:1021B0002C46F0E7BDE8F0817CB514460E46054696
:1021C000B2F5807F20D800200121CDE9000103462F
:1021D000024601460620FFF71BFCFFF767FF4FF0A2
:1021E0004070CDE900044FF4806300223146322074
:1021F000FFF70EFC41F2883229460448FEF72EFC18
:10220000BDE87C40FFF752BF7CBD000018100020E5
:10221000FFF734BF0FB4054B10B503A9044A029869
:1022200000F028F810BC5DF814FB0000D926000867
:10223000140000200907090E002804DB00F1E0204B
:1022400080F80014704700F00F0000F1E02080F8E3
:10225000141D704702E008C8121F08C1002AFAD1F5
:1022600070477047002001E001C1121F002AFBD116
:10227000704700002DE9FF4F8DB00F460546002640
:1022800006E025280BD0DDE90F1290476D1C761C67
:1022900028780028F5D111B03046BDE8F08F002431
:1022A000A246A1460122EC4900E0044315F8013F93
:1022B000203B02FA03F00842F7D128782A2810D0F0
:1022C0006FF02F022878A0F13001092914D80AEB09
:1022D0008A0102EB410144F0020400EB010A6D1C8B
:1022E000F0E701CF5FEA000A03D544F40054CAF1D5
:1022F000000A44F002046D1C28782E2817D115F826
:10230000010F44F004042A280ED06FF02F02287821
:10231000A0F1300109290AD809EB890102EB41013A
:1023200000EB01096D1CF2E757F8049B6D1C28783F
:102330006C280FD006DC4C2817D068280DD06A28EE
:1023400014D104E0742810D07A280FD10DE044F4A1
:1023500000140AE044F4801401E044F44014697865
:10236000814202D104F580146D1C6D1C2A786E2AFE
:102370001FD00CDC632A31D004DC002A8BD0582A11
:1023800011D1A3E0642A68D0692A0CD165E0732AD0
:102390002ED004DC6F2A73D0702A04D19BE0752AFA
:1023A0006FD0782A6ED01046DDE90F129047761C68
:1023B00050E1C4F30250022806D0032809D00428B3
:1023C00001CF09D0066045E101CFF117C0E90061F6
:1023D00040E101CF06803DE106703BE117F8040BB8
:1023E0008DF8000000208DF80100EB46012003E08D
:1023F00057F804BB4FF0FF3061074FF0000102D4E3
:102400000DE008F10101884649450FDA8045F8DB07
:102410001BF808100029F4D108E008F101018846F2
:102420008142FADB1BF808100029F6D1DDE90F2301
:10243000AAEB08008146214600F036F9304400EB53
:10244000080604E0DDE90F121BF8010B9047B8F114
:102450000108F7D221464846F7E00A21C4F30253A7
:102460004FF0000B0891022B04D001CFC117032BB2
:1024700009D00AE0FF1D27F00707F7E8020108E08E
:1024800032E01FE020E000B2C117042B01D140B2BE
:10249000C117031E71F1000307DA4FF0000CD0EBF7
:1024A0000C006CEB01012D2302E0230504D52B2346
:1024B0008DF82430012303E0E30701D02023F7E760
:1024C000984658E00A2110E010210EE010204FF04D
:1024D000000B08900CE010214FF0000B44F00404B6
:1024E0004FF00809089103E008214FF0000B089114
:1024F000C4F30253022B04D001CF0021032B06D0DA
:1025000006E0FF1D27F00707F7E8020103E080B2AD
:10251000042B00D1C0B24FF0000823072BD5702A3E
:1025200007D0DDF820C08CF0100C5CEA0B0C05D055
:102530000EE040238DF82430012308E050EA010327
:1025400006D030238DF824308DF8252002239846BC
:10255000DDF820C08CF0080C5CEA0B0C0BD150EAC3
:10256000010301D1630706D530238DF824304FF0E5
:102570000108A9F10109582A04D038A20B9208AA2F
:102580000A920BE03AA2F9E75B46089AFDF740FE93
:102590000B9B9B5C0A9A521E0A92137050EA01022E
:1025A000F2D10A98ADEB000000F1200B600702D5D4
:1025B00024F4803401E04FF00109D94502DDA9EB94
:1025C0000B0000E0002000EB0B0141440890AAEB57
:1025D000010AE00306D4DDE90F232146504600F04E
:1025E00063F806444FF0000908E009A911F8090052
:1025F000DDE90F12904709F10109761CC145F4DBB2
:10260000E0030CD5DDE90F232146504600F04CF8DD
:10261000064404E0DDE90F1230209047761C08994B
:10262000481E08900029F5DC08E00A980A9900780D
:10263000491C0A91DDE90F129047761CBBF100019D
:10264000ABF1010BF1DC21465046DDE90F2300F030
:1026500019F806446D1C1BE609280100303132339D
:1026600034353637383961626364656600000000CE
:1026700030313233343536373839414243444546B8
:10268000000000002DE9F041044600251E461746D3
:10269000880404D405E039462020B0476D1C641E30
:1026A000F9D52846BDE8F0812DE9F0410446002522
:1026B0001E469046C80301D5302700E02027880435
:1026C00004D505E041463846B0476D1C641EF9D577
:1026D0002846BDE8F081000013B54FF47A7301225B
:1026E00069460248FEF7CCFF00981CBD641000202C
:1026F000ADF5027DFDF71CFFFFF7D6F9FFF720F8D7
:10270000FFF764F8FFF782F8FFF7B4F8FFF780FDF2
:10271000002425A0FFF77EFDFFF7B0FC2B4D0146FE
:1027200028802BA0FFF776FD2888A0F56F41173988
:1027300002D131A0FFF76EFD002040A96D460C5577
:102740002855641CFF2CFAD94FF480764FF4FE0410
:102750003246214640A8FFF7C5FC32A0FFF75AFDDC
:10276000324621466846FFF771FC33A0FFF752FD61
:1027700035A0FFF74FFD002438A0295DFFF74AFD83
:10278000641CFF2CF8D90FA0FFF744FD32466946C0
:1027900040A8FDF792FD20B133A000BFFFF73AFD3E
:1027A000FEE73AA0FAE700002057323551313238BF
:1027B0004656205175616453504920546573742006
:1027C0002E2E2E2E0D0A0D0A000000000000002003
:1027D0002057323551313238465620517561645395
:1027E000504920446576696365204944203A203089
:1027F000782534580D0A00002057323551313238CF
:10280000465620517561645350492044657669638A
:1028100065206E616D65203A20573235513132386E
:102820000D0A0000205153504920577269746520E9
:102830006F6B0D0A00000000205153504920526573
:102840006164206F6B0D0A0051535049205265613D
:10285000642044617461203A200D0A0030782530EC
:1028600032582020000000002057323551313238D4
:102870004656205175616453504920546573742045
:102880004661696C65640D0A00000000205732350E
:1028900051313238465620517561645350492054A5
:1028A000657374204F4B0D0A000000000100020008
:1028B0000400060008000A000C0010002000400080
:1028C0008000000101010103070100000804020467
:1028D00008010101000000000000000001020304E3
:1028E0000607080900000000010203040C29000883
:1028F00000000020180000005422000824290008CD
:1029000018000020D01700006422000817EF000014
:102910001000000001000000000000000024F4008E
:0429200000000000B3
:04000005080001D915
:00000001FF
