:020000040800F2
:1000000080080020ED010008131F0008591A00089D
:10001000111F0008B90300083B260008000000007B
:10002000000000000000000000000000C3200008E5
:10003000BB0300080000000079200008C52000086C
:10004000070200080702000807020008070200086C
:10005000070200080702000807020008070200085C
:10006000070200080702000807020008070200084C
:10007000070200080702000807020008070200083C
:10008000070200080702000807020008070200082C
:10009000070200080702000807020008070200081C
:1000A000070200080702000807020008070200080C
:1000B00007020008070200080702000807020008FC
:1000C00007020008070200080702000807020008EC
:1000D00007020008070200080702000807020008DC
:1000E00007020008070200080702000807020008CC
:1000F00007020008070200080702000807020008BC
:1001000007020008070200080702000807020008AB
:10011000070200080702000807020008070200089B
:10012000070200080702000807020008070200088B
:10013000070200080702000807020008070200087B
:10014000070200080702000807020008070200086B
:10015000070200080702000807020008070200085B
:10016000070200080702000807020008070200084B
:10017000070200080702000807020008070200083B
:10018000070200080702000807020008070200082B
:10019000070200080000000007020008070200082C
:1001A000070200080702000807020008070200080B
:1001B00007020008070200080702000807020008FB
:1001C00007020008070200080702000807020008EB
:1001D0000702000807020008DFF80CD000F08CF8D6
:1001E000004800477529000880080020064880471D
:1001F00006480047FEE7FEE7FEE7FEE7FEE7FEE70C
:10020000FEE7FEE7FEE7FEE75D210008D9010008F2
:100210002DE9F05F0546002092469B46884606463B
:10022000814640241BE0284641464746224600F0CE
:1002300053F853465A46C01A914110D311461846F6
:10024000224600F03AF82D1A67EB01084F46224685
:100250000120002100F031F817EB00094E41201E6B
:10026000A4F10104DFDC484631462A464346BDE896
:10027000F09F40EA01039B0703D009E008C9121F61
:1002800008C0042AFAD203E011F8013B00F8013B50
:10029000521EF9D27047D2B201E000F8012B491E7C
:1002A000FBD270470022F6E710B513460A46044613
:1002B0001946FFF7F0FF204610BD202A04DB203A44
:1002C00000FA02F1002070479140C2F1200320FAA9
:1002D00003F3194390407047202A04DB203A21FAA7
:1002E00002F00021704721FA02F3D040C2F120024F
:1002F0009140084319467047064C074D06E0E068F8
:1003000040F0010394E8070098471034AC42F6D35C
:10031000FFF766FFFC2900081C2A00083EB51A4CAE
:1003200000220221204600F041F918A002F086F9CF
:10033000322000F045F801220221204600F036F973
:10034000322000F03DF8A0208DF804004FF47A74BC
:10035000022301AA14211148009400F075FA10B18B
:100360000FA002F06BF9012000F02AF8012302AA85
:1003700014210A48009400F0D5F99DF808100CA04B
:1003800002F05CF900203EBD00180048E5A48DE4B1
:10039000BD8D424E4F3035350D0A0000140000204F
:1003A000E58F91E98081E5A4B1E8B4A55C720A000B
:1003B00025580D0A00000000FEE7704772B6FEE700
:1003C00070B5044600F0F8F80546601C02D00448F9
:1003D0004068044400F0F0F8401BA042FAD370BD1E
:1003E000000000202DE9FC4FDFF8A0A1002301252B
:1003F0000AF1040B03244FF00F0C0BF1040EBDE0C7
:1004000005FA03F632406FD04F68012F05D0022F56
:1004100003D0112F01D0122F17D1D0F808905F0010
:1004200004FA07F829EA08090097D1F80C8008FABD
:1004300007F848EA0908C0F808804768B7430E790A
:10044000C6F300169E403E434660C6684FEA430826
:1004500004FA08F7BE4301978F6807FA08F7374395
:10046000C7604E68022E01D0122E13D1DE0800EBB9
:1004700086060096366A5F07FF0E0CFA07F926EA31
:100480000906D1F8109009FA07F949EA0609009E11
:10049000C6F820900668019FBE430F7907F0030756
:1004A00007FA08F7374307604E68F60065D5384EFF
:1004B000376E47F001073766366E23F0030706F004
:1004C00001060096334E3E44B146B6689F074FEA98
:1004D00017780CFA08F7BE43B0F1904F05D02E4FB5
:1004E000B84204D1012717E047E0002714E02B4F62
:1004F000B84201D102270FE0294FB84201D10327AA
:100500000AE0284FB84201D1042705E0264FB8423F
:1005100001D1052700E0062707FA08F73743C9F895
:100520000870DAF800605746D1F8048096435FEA15
:10053000C83800D516433E60DBF800605F46D1F84E
:10054000048096435FEA883800D516433E60DEF8A3
:1005500000607746D1F8048096435FEAC82800D54A
:1005600016433E60094F0C373E68D1F8048096432D
:100570005FEA882800D516433E605B1C0A6832FAA1
:1005800003F67FF43DAFBDE8FC8F0000000401409E
:10059000001002400000014000040048000800482C
:1005A000000C004800100048001400480AB18161A6
:1005B0007047816270470000014880687047000002
:1005C0000000002090F84120202A24D190F84020FB
:1005D000012A20D0012280F84020242280F84120E6
:1005E0000268136823F0010313600268136823F4A0
:1005F00080531360026813680B43136001680A6834
:1006000042F001020A60202180F84110002180F8A8
:100610004010084670470220704790F84120202A79
:1006200022D190F84020012A1ED0012280F84020DB
:10063000242280F841200268136823F0010313602C
:100640000268136823F4706343EA012111600168B2
:100650000A6842F001020A60202180F8411000215E
:1006600080F84010084670470220704770B50400BB
:1006700004D094F84100002510B106E0012070BDBF
:1006800084F84050204600F071F9242084F841009D
:100690002068016821F0010101606068216820F094
:1006A000706008612068816821F400418160E06821
:1006B0000128A06807D040F4044021688860E06801
:1006C000022803D006E040F40040F6E721684FF42A
:1006D0000060486020684168114A11434160206809
:1006E000C16821F40041C160D4E904010843A16953
:1006F00040EA01202168C860D4E907010843216865
:1007000008602068016841F00101016065642020F3
:1007100084F84100256384F84250002070BD000039
:10072000008000022DE9F84F044690F84100DDF802
:1007300028A01F4690468B4620287ED194F8400082
:1007400001287AD0012084F84000FFF735FF0646E3
:10075000012200901923D103204601F0E7F9E0BB04
:10076000222084F84100102084F8420000256564AE
:10077000C4F8248067856563618D3148FF274FF099
:1007800080784FF00079FF2903D927853A460090F9
:1007900039E0618D218500903AE05946204601F00C
:1007A000AFF913E001F0EEF9B8B92068406A616A68
:1007B0000870606A401C6062208D401E80B22085F7
:1007C000618D491E6185618D01B168B1608D3246D0
:1007D000002851462046E5D100E002E001F014FA7D
:1007E000D0B10120BDE8F88F534600228021204679
:1007F000009601F09BF90028F3D1608DFF2804D901
:1008000027853A4600954346C7E7608D20850095C9
:1008100094F828204B46C0E721682020C861216851
:100820004A68084B1A404A6084F8410084F84250F4
:1008300084F840500020D5E7FFE70220D2E700000F
:100840000024008000E800FE2DE9F84F044690F8EF
:100850004100DDF828A01F4690468B4620287ED117
:1008600094F8400001287AD0012084F84000FFF776
:10087000A3FE0646012200901923D103204601F071
:1008800055F9E0BB212084F84100102084F8420093
:1008900000256564C4F8248067856563618D3148EF
:1008A000FF274FF080784FF00079FF2903D9278583
:1008B0003A46009039E0618D218500903AE0594632
:1008C000204601F01DF913E001F0C4F9B8B9606ADF
:1008D000216800788862606A401C6062608D401EFA
:1008E0006085208D401E80B22085618D01B168B188
:1008F000608D3246002851462046E5D100E002E0F6
:1009000001F082F9D0B10120BDE8F88F53460022F2
:1009100080212046009601F009F90028F3D1608D6E
:10092000FF2804D927853A4600954346C7E7608DDE
:100930002085009594F828204B46C0E721682020A8
:10094000C86121684A68084B1A404A6084F841002F
:1009500084F8425084F840500020D5E7FFE7022099
:10096000D2E700000020008000E800FE2DE9F04101
:1009700086B0044614216846FFF794FC2A49206893
:100980002A4C12250126032788422CD1E06C40F026
:100990000100E064E06C00F001000590E06C40F0C4
:1009A0000200E064E06C4FF0040800F002000590E3
:1009B000C8138DE8E1016946A806FFF713FD802002
:1009C0008DE8E10169461A48FFF70CFD19484168B6
:1009D00041F400314160A06D40F40010A065A06DAD
:1009E00000F400101BE01449884219D1E06C40F07B
:1009F0000400E064E06C694600F0040005904FF4E8
:100A000040708DE8E100082004900C48FFF7EAFCF4
:100A1000A06D40F08040A065A06D00F08040059082
:100A200006B0BDE8F0810000005400400010024014
:100A30000004004800000140007800400008004821
:100A400002488168426811448160704700000020BC
:100A500010B50024032000F065F8002000F008F82D
:100A600008B1012401E000F025F8204610BD000087
:100A700070B50E4E05460024706898B14FF47A7137
:100A8000B1FBF0F00A490968B1FBF0F000F0A0FEFC
:100A900040B9102D06D200222946501E00F022F83F
:100AA000356000E00124204670BD000000000020F9
:100AB0000C0000200A4882B0016E41F0010101667D
:100AC000016E01F001010091816D41F0805181655D
:100AD000806D00F08050009002B000F013B900006B
:100AE00000100240F0B40E4B1B680C46C3F3022307
:100AF000C3F10705042D00D90425191D072901D2CA
:100B0000002300E0DB1E012606FA05F1491E214004
:100B100099409E40761E16403143F0BC01F09EBDC8
:100B20000CED00E0064900F0070208684FF6FF03ED
:100B3000184040EA0220034A104308607047000052
:100B40000CED00E00000FA0501220168C0F8E8227F
:100B5000002280F8E02231F8540F40F001000880B4
:100B6000088840F0020008801046704770B586B0D3
:100B7000040004D094F8A902002518B107E0012070
:100B800006B070BD84F8A852204600F049F8032052
:100B900084F8A902206801F048FD002001260EE03B
:100BA00000EB800104EBC10181F8296001F8280FF6
:100BB000C881CD700D614D61401CC0B28D6161680E
:100BC0008142EDD8002011E000EB800104EBC1016F
:100BD00081F8695181F8680181F86B51C1F8785149
:100BE000C1F87C51401CC0B2C1F88051616881429B
:100BF000EAD8142204F110016846FFF73AFB94E8A2
:100C00000F0001F009FD84F8245084F8A962E0691E
:100C1000012802D12046FFF797FF0020B0E700002F
:100C200008B500680649884208D10648816D41F43C
:100C300000018165806D00F40000009008BD000097
:100C4000005C0040001002402B492C4B0A68322106
:100C50004A432B4940B1B0F5007F086829D020F401
:100C6000C06040F480602CE00868C0F34120022896
:100C700004D051F8800F20F4807022E0D1F8800079
:100C800020F48070C1F88000086820F4C06040F44F
:100C900000700860B2FBF3F0401C00E0401E4A699F
:100CA000520501D50028F9D1486940050AD503202D
:100CB0007047C0F34120022806D051F8800F40F45D
:100CC0008070086000207047D1F8800040F4807088
:100CD000C1F88000086820F4C06040F4007008602B
:100CE000B2FBF3F0401C00E0401E4A695205DBD520
:100CF0000028F9D1D8E700000C00002040420F0086
:100D0000007000400248816841F480418160704772
:100D100000700040F8B50446FFF74EFC06465CB193
:100D200094F84000012809D0012784F8407094F815
:100D30004100002520B10BE00120F8BD0220F8BDE4
:100D400084F84050204600F041F841F28830A06419
:100D500020680168A2686FF0FF0321F4706103EB63
:100D6000022211430160A06C009033460022202132
:100D7000204601F082F908BBE269E168237911435A
:100D8000226A42EA03621143226813680D4E33401F
:100D900019431160D4E905121143226853680A4EC1
:100DA0003340268A43EA06431943516021680A68A2
:100DB00042F001020A60656484F8417084F8405092
:100DC000F8BD00002FFFFF00FEF8E0FF10B586B071
:100DD000044614216846FFF765FA124920688842E4
:100DE0001ED11148016D41F480710165016D01F45E
:100DF00080710591C16C41F01001C164C06C6946FD
:100E000000F0100005904FF47C400090022001900B
:100E10000020029003900A2004900448FFF7E2FAB1
:100E200006B010BD001000A00010024000100048E5
:100E30002DE9F843044600680026BB4D00035ED54B
:100E4000A86D0027C00008D4A86D40F08050A865A8
:100E5000A86D012700F080500090DFF8D092D9F8FB
:100E6000001041F48071C9F80010FFF7A5FB80461F
:100E700006E000BFFFF7A0FBA0EB080002282BD87C
:100E8000D9F80000C005F5D5D5F8900010F44070F1
:100E900014D0216D814211D0D5F89000D5F8901072
:100EA00020F4407041F48031C5F89010D5F89010CE
:100EB00021F48031C5F89010C5F89000C00711D01A
:100EC000FFF77AFB804641F2883907E0FFF774FBB1
:100ED000A0EB0801494501D903260BE0D5F89000A5
:100EE0008007F3D5D5F89000216D20F440700843B9
:100EF000C5F890001FB1A86D20F08050A86520783B
:100F0000C00707D0D5F88800616820F003000843C7
:100F1000C5F888002078800707D5D5F88800A16833
:100F200020F00C000843C5F888002078400707D55A
:100F3000D5F88800E16820F030000843C5F8880043
:100F40002078000707D5D5F88800216920F0C00077
:100F50000843C5F888002078C00607D5D5F8880072
:100F6000616920F440700843C5F888002078800645
:100F700007D5D5F88800A16920F440600843C5F87A
:100F800088002078400607D5D5F88800E16920F46C
:100F900040500843C5F888002078000607D5D5F8EA
:100FA0008800216A20F440400843C5F88800208862
:100FB000C00507D5D5F88800616A20F440300843A1
:100FC000C5F888002068800307D5D5F89C00A16A81
:100FD00020F003000843C5F89C002088800507D551
:100FE000D5F88800E16A20F440200843C5F888005D
:100FF000208840050FD5D5F88800216B20F44010DB
:101000000843C5F88800206BB0F5801F03D1E8685D
:1010100040F48010E860208800050FD5D5F88800DE
:10102000616B20F440000843C5F88800606BB0F5A0
:10103000800F03D1E86840F48010E8602088C00485
:101040000FD5D5F88800A16B20F040700843C5F893
:101050008800A06BB0F1807F03D1E86840F4801075
:10106000E86020884FF0006180040ED5D5F8880034
:10107000E26B20F040601043C5F88800E06B8842C6
:1010800003D1E86840F48010E860208840040ED561
:10109000D5F88800226C20F040601043C5F8880025
:1010A000206C884203D1E86840F48010E860208812
:1010B00000040FD5D5F88800616C20F0405008433B
:1010C000C5F88800606CB0F1805F03D1E86840F437
:1010D0008030E8602068C0030FD5D5F88800A16C87
:1010E00020F040400843C5F88800A06CB0F1804F64
:1010F00003D1E86840F48030E860206840030FD5F1
:10110000D5F89C00E16C20F440100843C5F89C0021
:10111000E06CB0F5001F03D1E86840F48010E8608F
:101120003046BDE8F8830000001002400070004027
:101130002DE9F0470E4605004FF0000725D0DFF8F7
:10114000AC81D8F8000000F00F00B0420CD2D8F803
:10115000001021F00F013143C8F80010D8F800004A
:1011600000F00F00B04210D12968614CC80741F26D
:10117000883A5AD06868DFF87C91032808D00228A2
:1011800020682DD0400500282CDB0120BDE8F08729
:1011900020688001F9D5E06800F00302E068C0F340
:1011A0000310401C032A19D0534A00BFB2FBF0F0D1
:1011B000E268C2F306225043E268C2F34162521C65
:1011C0005200B0FBF2F0484517D9A06810F0F00FBC
:1011D0000CD0880711D5A86840B10EE0474AE5E772
:1011E0008003D0E700F0B6F8484506D9A06820F0A3
:1011F000F00040F08000A0608027A068696820F0BF
:1012000003000843A060FFF7D7F9814606E000BF5E
:10121000FFF7D2F9A0EB090151453AD8A0686968F7
:1012200000F00C00B0EB810FF2D12868810714D5D3
:10123000400703D5A06840F4E060A060287800076C
:1012400005D5A06820F4605040F4E060A060A0687C
:10125000A96820F0F000084304E0802F03D1A068C3
:1012600020F0F000A060D8F80010404601F00F0117
:10127000B14216D9016821F00F0131430160FFF737
:101280009BF9074607E000BFFFF796F9C11B5145E0
:1012900001D903207AE7D8F8000000F00F00B0422F
:1012A000F2D12878400705D5A068E96820F4E0600D
:1012B0000843A0602878000706D5A068296920F4B3
:1012C000605040EAC100A06000F044F8A1680C4AF8
:1012D000C1F30311515C01F01F01C84009490860C6
:1012E00009480068BDE8F047FFF7C2BB0020024094
:1012F0000010024000B4C4040024F40000366E0163
:10130000E42900080C0000200000002005480649E0
:1013100000688968054AC1F30221515C01F01F0190
:10132000C84070470C00002000100240F42900085B
:101330000548064900688968054AC1F3C221515C25
:1013400001F01F01C84070470C000020001002404F
:10135000F4290008184910B58868C0F381021748BD
:10136000012A0BD08A68164BC2F38102022A06D0EA
:101370008A68C2F38102032A03D0002010BD1846F8
:1013800010BDCA6802F00304CA68C2F30312521CFB
:10139000032C02D0B0FBF2F001E0B3FBF2F0CA681C
:1013A000C968C2F306225043C1F34161491C490098
:1013B000B0FBF1F010BD0000001002400024F4006A
:1013C00000366E012DE9F84304007AD02078FA4DFA
:1013D000C00747D0A868E96800F00C0001F00301DD
:1013E0000C2802D0082817D001E0032914D0606827
:1013F000B0F5803F17D0B0F5A02F286817D020F4A3
:1014000080302860286820F4802028606068E0B17F
:10141000FFF7D2F8064614E02868800322D56068FA
:101420000028D2D01EE0286840F48030EDE740F478
:1014300080202860F7E700BFFFF7BEF8801B642814
:1014400070D828688003F7D50CE0FFF7B5F806469A
:1014500005E000BFFFF7B0F8801B6428F0D82868CB
:101460008003F7D4207880074CD5A868E96800F09D
:101470000C0001F003010C2802D004280DD001E07B
:1014800002290AD0E068002828682BD040F4807038
:101490002860FFF791F8064619E02868400502D554
:1014A000E068002891D06868217C20F0FE4040EA86
:1014B00001606860C1480068FFF7DAFA002800D1CF
:1014C00020E076E1FFF778F8801B0228B8D828687A
:1014D0004005F7D56868217C20F0FE4040EA0160B5
:1014E00068600FE020F480702860FFF765F806461A
:1014F00005E000BFFFF760F8801B0228A0D828682D
:101500004005F7D42078000729D560690028D5F870
:10151000940013D040F00100C5F89400FFF74CF898
:10152000064606E090E000BFFFF746F8801B022861
:1015300086D8D5F894008007F6D510E020F0010099
:10154000C5F89400FFF738F8064604E0FFF734F8D2
:10155000801B022878D8D5F894008007F6D420782C
:10156000400761D5A86D0026C00008D4A86D40F0E2
:101570008050A865A86D012600F08050009090482A
:101580000168C90511D40168804641F48071016089
:10159000FFF712F8074604E0FFF70EF8C01B022819
:1015A00052D8D8F80000C005F6D5A068012815D09B
:1015B0000528D5F8900016D020F00100C5F890005D
:1015C000D5F8900020F00400C5F89000A06841F222
:1015D0008838B8B1FEF7F0FF07460EE0D5F8900066
:1015E00040F00100F0E740F00400C5F89000F5E796
:1015F000FEF7E2FFC11B414526D8D5F890008007D1
:10160000F6D50CE0FEF7D8FF074604E0FEF7D4FF5E
:10161000C11B414518D8D5F890008007F6D41EB1FB
:10162000A86D20F08050A8652078800629D5A06993
:101630000028D5F8980013D040F00100C5F89800B4
:10164000FEF7BAFF064606E077E000BFFEF7B4FFFC
:10165000801B022877D8D5F898008007F6D510E0CF
:1016600020F00100C5F89800FEF7A6FF064604E04A
:10167000FEF7A2FF801B022865D8D5F898008007E6
:10168000F6D4E069F0B3A968C1F38101032961D000
:101690000228286820F0807028600BD0E86820F0CD
:1016A0000300E860E86847490840E860FEF784FF07
:1016B00004464BE0FEF780FF064604E0FEF77CFFA1
:1016C000801B02283FD828688001F7D4F4E908017C
:1016D0006FF00F0202EB01110843218A52044908FE
:1016E00002EB4151A26841EA02210843217D4FF0FB
:1016F0007E42490802EB41610843217B40EAC16018
:10170000E96800E062E0304A11400843E860286878
:1017100040F080702860E86840F08070E860FEF774
:101720004BFF044605E000BFFEF746FF001B022802
:1017300009D828688001F7D548E004E0FEF73CFFAF
:10174000001B022802D90320BDE8F8832868800125
:10175000F4D43BE00128F7D0E868226A00F00301E6
:10176000914226D1616A00F0F002090110399142DC
:101770001FD1A26A00F4FE41B1EB022F19D194F8F7
:101780002C2000F07841B1EBC26F12D1218E00F411
:10179000C00249084905A1F50011914209D194F808
:1017A000341000F0C06049084906A1F1007181427F
:1017B0000CD00120C8E7000000100240000000200B
:1017C00000700040FFFFEEFE0C809F010020BBE791
:1017D00010B5401EB0F1807F01D3012010BD4FF045
:1017E000E02460610F21601700F038FF0020A06145
:1017F00007202061002010BD90F88010012918D02A
:10180000012180F880102421C0F8841050F8641B56
:101810000A680B6823F001030B6022F000510022DC
:10182000026050F8643C1960202101620277104682
:1018300070470220704770B5044690F88000012878
:101840001DD0012084F880002420C4F88400206882
:101850000568026822F0010202602068826822F0B6
:1018600060620A438260204600F080FC20680560C8
:101870002020C4F88400002084F8800070BD02207D
:1018800070BD70B5044690F8800001281DD001207D
:1018900084F880002420C4F8840020680568026869
:1018A00022F0010202602068826822F060420A434E
:1018B0008260204600F05AFC206805602020C4F8B1
:1018C0008400002084F8800070BD022070BD10B537
:1018D000040003D0D4F8840010B107E0012010BD4B
:1018E000002084F88000204600F026F82420C4F868
:1018F00084002068016821F001010160204600F0A9
:10190000EBFC0128EBD0A06A10B1204600F050FC9F
:101910002068416821F4904141602068816821F08D
:101920002A0181602068016841F0010101602046C0
:10193000BDE8104000F0A0BC10B586B004461421EC
:101940006846FEF7AFFC1349206888421FD1124851
:10195000016E41F480410166016E01F48041059100
:10196000C16C41F00101C164C06C694600F0010026
:1019700005904FF4C060009002200190002002907A
:101980000390072004904FF09040FEF72BFD06B027
:1019900010BD000000380140001002402DE9F8435E
:1019A0000446D0F884001F4616460D46202851D123
:1019B000DDB1D6B194F8800001284BD0012084F825
:1019C00080004FF00008C4F88C802120C4F8840007
:1019D0001834FEF7F1FDA6878146E68754F8100C0F
:1019E000183CB0F5805F03D004E00120BDE8F88327
:1019F000206920B12E46002584F8808010E0002662
:101A0000FAE78021204600F0B5FDB8B9C6B116F856
:101A1000010B21688862B4F85600401EA4F85600F5
:101A2000B4F856004B464FF0000200970028E8D16A
:101A30004FF04001204600F09DFD30B10320D5E776
:101A400035F8020BC0F30800E3E72020C4F8840057
:101A50000020CBE70220C9E7FEE701688A69D2438C
:101A6000920701D400228A6200688169C943C907CC
:101A700003D0816941F00101816170472DE9F04196
:101A80000446006890460E468069C043C00633D4C1
:101A90000025202720688069C043800615D5701C6A
:101AA000F8D0FEF789FDA0EB0800B04201D8002E67
:101AB000F0D154F8440F40F0200044F80409677056
:101AC000A57025700120BDE8F08121681020C86153
:101AD0002068C7612046FFF7C0FF54F8440B4168F7
:101AE000064A11404160206840F0040044F8200993
:101AF0006777A5772577E5E70020E4E700E800FEB3
:101B0000F0B50568059C68684FF48066064FC1F320
:101B1000090106EA545641EA02413E431943B043E3
:101B2000214308436860F0BDFF63FF032DE9F041E6
:101B30001D4617460E460446DDF8188008E0681C6E
:101B400006D0FEF739FDA0EB0800A8420BD855B12E
:101B50002068806936EA000012D00020B842EED03A
:101B60000020BDE8F08154F8440F40F0200044F814
:101B70000409202060700020A07020700120F0E790
:101B80000120EBE72DE9F041002690460F46044680
:101B9000202525E0424639462046FFF76FFF78BBF7
:101BA00020688069C043800613D420688169C943D6
:101BB000490701D4218DC1B9C56154F8440B41686E
:101BC000104A1140416044F820696577A67726776E
:101BD00016E0FEF7F1FCA0EB0800B84208D83FB1D0
:101BE00020688069C0434007D4D40020BDE8F0815C
:101BF00054F8440F40F0200044F804096570267042
:101C00000120F3E700E800FE70B516460D460446D5
:101C10000DE0324629462046FFF730FF08B101208B
:101C200070BDFEF7C9FC801BA84207D835B12068FB
:101C30008069C0438006ECD4002070BD54F8440F86
:101C400040F0200044F80409202060700020A070BB
:101C50002070E4E770B516460D4604460FE03246A4
:101C600029462046FFF70AFF08B1012070BD681C15
:101C700005D0FEF7A1FC801BA84207D835B120682B
:101C80008069C0438007EAD4002070BD54F8440F37
:101C900040F0200044F80409202060700020A0706B
:101CA0002070E2E7F0B587B014216846FEF7FAFA33
:101CB0003148C16C41F01001C164C16C01F01001E8
:101CC0000591C16C41F00401C164C16C01F00401D3
:101CD0000591C16C41F02001C164C16C01F020018B
:101CE0000591C16C41F04001C164C16C01F040013B
:101CF0000591C16C41F00101C164C16C01F00101A9
:101D00000591C16C41F00201C164C06C1B4E00F032
:101D100002000590012228213046FEF747FC184FAB
:101D2000012202213846FEF741FC00240420CDE9BF
:101D30000004694630460294FEF754FB28200090C8
:101D40000125CDE90154694630460394FEF74AFB6C
:101D50000C486946CDE9005038460295FEF742FB33
:101D60000220CDE900050320CDE90240694638464E
:101D7000FEF738FB07B0F0BD00100240001000482D
:101D80000018004800001110134810B511490160F7
:101D90001249416000210122C0E902120161416142
:101DA0008161C1610162FEF761FC08B1FEF706FBCB
:101DB00000210948FEF706FC08B1FEF7FFFA0021F2
:101DC0000548FEF72AFC002803D0BDE81040FEF7C6
:101DD000F5BA10BD0054004014000020FBA7A0304D
:101DE000134810B5114901601249416000210122D8
:101DF000C0E90212016141618161C1610162FEF7C6
:101E000035FC08B1FEF7DAFA00210948FEF7DAFBE3
:101E100008B1FEF7D3FA00210548FEF7FEFB0028C3
:101E200003D0BDE81040FEF7C9BA10BD00780040ED
:101E300060000020FBA7A0300C4810B50A490160E3
:101E4000FF210122C0E901120021C0E90312416112
:101E50008161C1610162FEF75DFF002803D0BDE82A
:101E60001040FEF7ABBA10BD001000A0AC0000207F
:101E7000184810B5164901604FF4E1314160002166
:101E800081600C22C160C0E904128161C1610162FC
:101E900041628162FFF71BFD08B1FEF78FFA002156
:101EA0000C48FFF7EEFC08B1FEF788FA002109485C
:101EB000FFF7C1FC08B1FEF781FA0648FFF79CFC6A
:101EC000002803D0BDE81040FEF778BA10BD00002E
:101ED00000380140F80000200C4810B50A490160A4
:101EE000082141600221816001610021416181611D
:101EF000C1610162FEF73AFE002803D0BDE8104040
:101F0000FEF75CBA10BD0000005C004088010020B4
:101F1000FEE7FEE770B5002404F1B000C0B200F0A7
:101F200087F8002000F084F8102000F081F80025E8
:101F3000002000F08FF86D1CEDB2802DF8D3641CEA
:101F4000E4B2082CE8D370BD10B54FF4FA70FEF778
:101F500037FAAE2000F06CF8002000F069F810208D
:101F600000F066F8402000F063F8812000F060F88F
:101F7000FF2000F05DF8A12000F05AF8C82000F022
:101F800057F8A62000F054F8A82000F051F83F20A0
:101F900000F04EF8D32000F04BF8002000F048F895
:101FA000D52000F045F8802000F042F8D92000F05C
:101FB0003FF8F12000F03CF8DA2000F039F8122068
:101FC00000F036F8DB2000F033F8402000F030F865
:101FD000202000F02DF8022000F02AF88D2000F0DB
:101FE00027F8142000F024F8A42000F021F8A620FF
:101FF00000F01EF8AF2000F01BF8FFF78BFF002168
:10200000BDE810400846AFF3008010B50446B0317B
:10201000C8B200F00DF8102040EA141000F008F8E3
:1020200004F00F00BDE8104040F00100AFF3008065
:102030001CB500218DF804108DF805004FF6FF70D7
:102040000090022301AA78210148FEF7FDFB1CBD88
:10205000600000201CB540218DF804108DF80500AB
:102060004FF6FF700090022301AA78210148FEF785
:10207000EBFB1CBD6000002070472DE9F041984645
:1020800016460F460446069D08E0681C06D0FEF77B
:1020900093FAA0EB0800A8420AD84DB120688068E6
:1020A000384000D00120B042EFD10020BDE8F081DF
:1020B000042084F84100606C40F00100606401205D
:1020C000F4E77047FEF7BCBC10B5A8B0382115A8DE
:1020D000FEF7E8F8142123A8FEF7E4F85421684637
:1020E000FEF7E0F80020FEF7AFFD212015904FF439
:1020F0008030169001201B900220032406211C90A2
:10210000CDE91D415521CDE91F102190229015A840
:10211000FFF758F908B172B6FEE70F20CDE92304A6
:10212000002425942694042123A82794FFF700F87F
:1021300008B172B6FEE70848CDE900040994079497
:102140000F9468461394FEF773FE002801D072B610
:10215000FEE728B010BD00004121040002480168DC
:1021600041F470010160704788ED00E030B5416EC8
:10217000B9B1026891689268C1F342610B4B520F8A
:102180009C5CE50003F10804A25CB5FBF2F2A0F848
:102190006A205A5C615CD200B2FBF1F1A0F86810D1
:1021A00030BD0121A0F86A10F8E70000D42900082A
:1021B00090F82810C90706D001684A68C36A22F45B
:1021C00000321A434A6090F82810890706D5016842
:1021D0004A68036B22F480321A434A6090F8281050
:1021E000490706D501684A68436B22F480221A43E6
:1021F0004A6090F82810090706D501684A68836B81
:1022000022F400421A434A6090F82810C90606D505
:1022100001688A68C36B22F480521A438A6090F87E
:102220002810890606D501688A68036C22F40052DA
:102230001A438A6090F82810490611D501684A6847
:10224000436C22F480121A434A60416CB1F5801F3E
:1022500006D101684A68836C22F4C0021A434A60BE
:1022600090F82810090606D501684A68C06C22F467
:10227000002202434A607047F8B500260446C0F8C1
:102280008C60FEF799F90546206800686FF07E477C
:10229000000708D52B4600224FF400112046009776
:1022A00000F068F960B92068006840070AD52B463D
:1022B00000224FF480012046009700F05BF908B13E
:1022C0000320F8BD2020C4F88400C4F8880044F836
:1022D0006C6F00202675F8BD2DE9F04104460168B9
:1022E00080682269E3691043626900251A4310433C
:1022F000DFF850C20A68944B1A4002430A60206813
:102300004168E26821F44051114341602168A069AD
:10231000614501D0226A10438A688C4B1A400243FF
:102320008A602068C16A626A21F00F011143C162AC
:102330008749236887488B420DD1D0F8880010F078
:10234000030006D0012867D0022854D0032851D1B9
:1023500064E001204FE080498B420BD1D0F8880027
:1023600010F00C0047D0042845D0082852D00C2883
:1023700040D153E079498B420BD1D0F8880010F05E
:10238000300038D0102847D0202843D0302831D111
:1023900044E073498B420BD1D0F8880010F0C000A4
:1023A00029D0402838D0802834D0C02822D135E028
:1023B0006C498B420ED1D0F8880010F440701AD0CE
:1023C000B0F5807F28D0B0F5007F23D0B0F5407FF6
:1023D00010D123E063450DD1D0F8880010F440609F
:1023E00009D0B0F5806F17D0B0F5006F12D0B0F5FE
:1023F000406F13D010205C4A5C4F00264FF4004120
:10240000634539D160B102280DD004280DD00828C9
:1024100031D10EE00220EEE70420ECE70820EAE7E5
:10242000FEF774FF03E0114603E0FEF793FF01009F
:102430007DD0606A37F810206768B1FBF2F007EBD7
:10244000470383426CD8B0EB073F69D800230846A6
:102450001946FDF7DDFE090241EA10610202780823
:10246000101871413A460023FDF7D2FE404AA0F50C
:102470004071914259D953E0E3694FF6EF788B42AE
:102480002DD109284CD2DFE800F005080D4B274B71
:102490004B4B0E00FEF73AFF01E0FEF749FF01004B
:1024A00001D144E01146606A37F81000B1FBF0F04A
:1024B0004100606801EB5001B1FBF0F080B2A0F187
:1024C000100141452CD84FF6F0710140C0F3420095
:1024D00001432068C1602AE0FEF73CFFDFE70928DE
:1024E0001ED2DFE800F005080D1D1F1D1D1D0E008A
:1024F000FEF70CFF01E0FEF71BFF010001D116E023
:102500001146606A37F81000B1FBF0F1606801EB2A
:102510005001B1FBF0F080B2A0F11001414504D9A7
:10252000012504E0FEF716FFE7E72168C8600120F7
:10253000A4F86A0024F8680F2846A660E660BDE8A3
:10254000F081000000800040F369FFCFFFF4FF112D
:1025500000380140001002400044004000480040A4
:10256000004C0040005000400024F400BC2900084A
:10257000FFFC0F002DE9F0479A4617460E46044629
:102580004FF000094FF02008089D39E0681C37D053
:10259000FEF712F8A0EB0A00A84222D80DB320687B
:1025A000016849072CD5C069C043000528D42168BB
:1025B0004FF4006008622068016821F4D071016066
:1025C0002068816821F001018160C4F88480C4F82A
:1025D0008880C4F88C8000BF84F880900320BDE818
:1025E000F0872068016821F4D0710160206881685B
:1025F00021F001018160C4F88480C4F88880EBE791
:102600002068C06936EA000004D00020B842BDD07E
:102610000020E4E70120F9E7012120F8401F002114
:102620000180818001820846704730F8401F4BF6D8
:1026300080729143018000207047FEE70FB4054B84
:1026400010B503A9044A029800F028F810BC5DF800
:1026500014FB00005D290008100000200907090E86
:10266000002804DB00F1E02080F80014704700F03F
:102670000F0000F1E02080F8141D704702E008C848
:10268000121F08C1002AFAD170477047002001E0EC
:1026900001C1121F002AFBD1704700002DE9FF4F36
:1026A0008DB09B460F460446002606E025280BD039
:1026B0005A460F999047641C761C20780028F5D163
:1026C00011B03046BDE8F08F0025A8460122984998
:1026D00000E0054314F8013F203B02FA03F00842F2
:1026E000F7D120782E2817D114F8010F45F00405F2
:1026F0002A280ED06FF02F022078A0F1300109298E
:102700000AD808EB880102EB410100EB0108641CC8
:10271000F2E757F8048B641C20786C280DD004DC99
:102720004C2812D06A2811D104E074280DD07A28E0
:102730000CD10AE045F4001507E0617845F48015F6
:10274000814202D1641C05F58015641C2278692A37
:1027500045D008DC002AB3D0582A69D0632A10D0AB
:10276000642A08D13BE0702A67D0732A13D0752AF7
:102770005CD0782A5CD010465A460F999047761C58
:10278000D3E017F8040B8DF8000000208DF801004D
:10279000E946012003E057F8049B4FF0FF3069073A
:1027A0004FF0000501D40AE06D1C45450DDA854265
:1027B000FADB19F805100029F6D106E06D1C8542F8
:1027C000FCDB19F805100029F8D12E4404E019F8B3
:1027D000010B5A460F9990476D1EF8D2A5E00A20CA
:1027E0000021CDE90801C5F3025002280DD001CF28
:1027F000C117031E71F100030DDA4FF0000CD0EB8E
:102800000C006CEB01012D2308E0FF1D27F00707EA
:10281000F7E80201EDE72B0504D52B238DF82830CE
:1028200001233BE0EB0739D02023F7E70A2000E043
:1028300010200021CDE9080107E01020002145F01B
:102840000405CDE908014FF00808C5F3025002283D
:102850000FD001CF00214FF0000A2B071FD5702A9F
:102860000DD0DDE908C38CF0100C5CEA030C0CD031
:1028700015E0FF1D27F00707F7E80201EBE740220C
:102880008DF828204FF0010A0BE050EA010306D032
:1028900030238DF828308DF8292002239A46582AB3
:1028A00004D024A20DF120090B9209E026A2F9E739
:1028B000DDE90823FDF7ACFC0B9B9B5C09F8013DAF
:1028C00050EA0102F4D1ADEB09002030089068070E
:1028D00001D44FF001080899884502DDA8EB0100FA
:1028E00000E000208046002506E00AA85A46405D28
:1028F0000F9990476D1C761C5545F6DB04E030209F
:102900005A460F999047761CB8F10001A8F10108CA
:10291000F5DC05E019F8010B5A460F999047761C33
:102920000899481E08900029F4DC641CC5E60000E4
:102930000928010030313233343536373839616295
:102940006364656600000000303132333435363759
:1029500038394142434445460000000013B54FF466
:102960007A73012269460248FFF718F800981CBDE7
:10297000F8000020FEF76CF8FFF7A6FBFFF792F9CE
:10298000FFF776FAFFF758FAFFF7A6FAFFF7FCF918
:10299000FFF726FA03A0FFF751FEFFF7D5FAFDF780
:1029A000BDFCFEE74F4C454420302E3936272054DD
:1029B0004553542E2E2E0D0A000000000100020087
:1029C0000400060008000A000C001000200040006F
:1029D0008000000101010103070100000804020456
:1029E00008010101000000000000000001020304D2
:1029F0000607080900000000010203041C2A000861
:102A000000000020140000007C260008302A000886
:102A1000140000206C0800008C2600081000000044
:102A200001000000000000000024F400000000008D
:04000005080001D915
:00000001FF
