:020000040800F2
:10000000E8070020ED010008AB16000841150008C4
:10001000A91600081D0300086B1C00080000000062
:10002000000000000000000000000000F7160008BB
:100030001F03000800000000AD160008F9160008B4
:10004000070200080702000807020008070200086C
:10005000070200080702000807020008070200085C
:10006000070200080702000807020008070200084C
:10007000070200080702000807020008070200083C
:10008000070200080702000807020008070200082C
:10009000070200080702000807020008070200081C
:1000A000070200080702000807020008070200080C
:1000B00007020008070200080702000807020008FC
:1000C00007020008070200080702000807020008EC
:1000D00007020008070200080702000807020008DC
:1000E00007020008070200080702000807020008CC
:1000F00007020008070200080702000807020008BC
:1001000007020008070200080702000807020008AB
:10011000070200080702000807020008070200089B
:10012000070200080702000807020008070200088B
:10013000070200080702000807020008070200087B
:10014000070200080702000807020008070200086B
:10015000070200080702000807020008070200085B
:10016000070200080702000807020008070200084B
:10017000070200080702000807020008070200083B
:10018000070200080702000807020008070200082B
:10019000070200080000000007020008070200082C
:1001A000070200080702000807020008070200080B
:1001B00007020008070200080702000807020008FB
:1001C00007020008070200080702000807020008EB
:1001D0000702000807020008DFF80CD000F08CF8D6
:1001E00000480047F51C0008E80700200648804743
:1001F00006480047FEE7FEE7FEE7FEE7FEE7FEE70C
:10020000FEE7FEE7FEE7FEE78D170008D9010008CC
:100210002DE9F05F0546002092469B46884606463B
:10022000814640241BE0284641464746224600F0CE
:1002300053F853465A46C01A914110D311461846F6
:10024000224600F03AF82D1A67EB01084F46224685
:100250000120002100F031F817EB00094E41201E6B
:10026000A4F10104DFDC484631462A464346BDE896
:10027000F09F40EA01039B0703D009E008C9121F61
:1002800008C0042AFAD203E011F8013B00F8013B50
:10029000521EF9D27047D2B201E000F8012B491E7C
:1002A000FBD270470022F6E710B513460A46044613
:1002B0001946FFF7F0FF204610BD202A04DB203A44
:1002C00000FA02F1002070479140C2F1200320FAA9
:1002D00003F3194390407047202A04DB203A21FAA7
:1002E00002F00021704721FA02F3D040C2F120024F
:1002F0009140084319467047064C074D06E0E068F8
:1003000040F0010394E8070098471034AC42F6D35C
:10031000FFF766FFB01D0008D01D0008FEE770471C
:1003200072B6FEE770B5044600F0F8F80546601CAA
:1003300002D004484068044400F0F0F8401BA0429A
:10034000FAD370BD000000202DE9FC4FDFF8A0A11A
:10035000002301250AF1040B03244FF00F0C0BF1CD
:10036000040EBDE005FA03F632406FD04F68012F4E
:1003700005D0022F03D0112F01D0122F17D1D0F8A2
:1003800008905F0004FA07F829EA08090097D1F8F5
:100390000C8008FA07F848EA0908C0F8088047689E
:1003A000B7430E79C6F300169E403E434660C668CA
:1003B0004FEA430804FA08F7BE4301978F6807FA2B
:1003C00008F73743C7604E68022E01D0122E13D1B2
:1003D000DE0800EB86060096366A5F07FF0E0CFA11
:1003E00007F926EA0906D1F8109009FA07F949EA4F
:1003F0000609009EC6F820900668019FBE430F794B
:1004000007F0030707FA08F7374307604E68F6005E
:1004100065D5384E376E47F001073766366E23F0E4
:10042000030706F001060096334E3E44B146B66817
:100430009F074FEA17780CFA08F7BE43B0F1904FC8
:1004400005D02E4FB84204D1012717E047E000271E
:1004500014E02B4FB84201D102270FE0294FB842D8
:1004600001D103270AE0284FB84201D1042705E053
:10047000264FB84201D1052700E0062707FA08F702
:100480003743C9F80870DAF800605746D1F804809D
:1004900096435FEAC83800D516433E60DBF800603B
:1004A0005F46D1F8048096435FEA883800D516434A
:1004B0003E60DEF800607746D1F8048096435FEA3C
:1004C000C82800D516433E60094F0C373E68D1F866
:1004D000048096435FEA882800D516433E605B1C83
:1004E0000A6832FA03F67FF43DAFBDE8FC8F0000E6
:1004F00000040140001002400000014000040048D8
:1005000000080048000C0048001000480014004893
:100510000AB18161704781627047000001488068BC
:1005200070470000000000200248816842681144C2
:10053000816070470000002010B50024032000F007
:1005400065F8002000F008F808B1012401E000F08F
:1005500025F8204610BD000070B50E4E054600245B
:10056000706898B14FF47A71B1FBF0F00A490968EC
:10057000B1FBF0F000F0A0FE40B9102D06D2002231
:100580002946501E00F022F8356000E00124204684
:1005900070BD0000000000200C0000200A4882B05E
:1005A000016E41F001010166016E01F0010100914F
:1005B000816D41F080518165806D00F08050009028
:1005C00002B000F013B9000000100240F0B40E4B6E
:1005D0001B680C46C3F30223C3F10705042D00D9A1
:1005E0000425191D072901D2002300E0DB1E012686
:1005F00006FA05F1491E214099409E40761E16409C
:100600003143F0BC01F03ABB0CED00E0064900F0CC
:10061000070208684FF6FF03184040EA0220034A29
:1006200010430860704700000CED00E00000FA0580
:1006300001220168C0F8E822002280F8E02231F8A7
:10064000540F40F001000880088840F00200088044
:100650001046704770B586B0040004D094F8A90223
:10066000002518B107E0012006B070BD84F8A8523B
:10067000204600F049F8032084F8A902206801F020
:10068000ECFA002001260EE000EB800104EBC10132
:1006900081F8296001F8280FC881CD700D614D6186
:1006A000401CC0B28D6161688142EDD8002011E02C
:1006B00000EB800104EBC10181F8695181F8680108
:1006C00081F86B51C1F87851C1F87C51401CC0B21F
:1006D000C1F8805161688142EAD8142204F1100106
:1006E0006846FFF7C6FD94E80F0001F0ADFA84F804
:1006F000245084F8A962E069012802D12046FFF75E
:1007000097FF0020B0E7000008B50068064988425E
:1007100008D10648816D41F400018165806D00F4C7
:100720000000009008BD0000005C00400010024086
:100730002B492C4B0A6832214A432B4940B1B0F572
:10074000007F086829D020F4C06040F480602CE06D
:100750000868C0F34120022804D051F8800F20F42B
:10076000807022E0D1F8800020F48070C1F8800011
:10077000086820F4C06040F400700860B2FBF3F039
:10078000401C00E0401E4A69520501D50028F9D1FD
:10079000486940050AD503207047C0F3412002286C
:1007A00006D051F8800F40F4807008600020704738
:1007B000D1F8800040F48070C1F88000086820F40F
:1007C000C06040F400700860B2FBF3F0401C00E031
:1007D000401E4A695205DBD50028F9D1D8E7000050
:1007E0000C00002040420F00007000400248816869
:1007F00041F480418160704700700040F8B50446C4
:10080000FFF78CFE06465CB194F84000012809D041
:10081000012784F8407094F84100002520B10BE0D6
:100820000120F8BD0220F8BD84F84050204600F0B9
:1008300041F841F28830A06420680168A2686FF036
:10084000FF0321F4706103EB022211430160A06CED
:100850000090334600222021204600F028FF08BBEC
:10086000E269E16823791143226A42EA0362114393
:10087000226813680D4E334019431160D4E9051204
:100880001143226853680A4E3340268A43EA0643DE
:100890001943516021680A6842F001020A606564E8
:1008A00084F8417084F84050F8BD00002FFFFF002D
:1008B000FEF8E0FF10B586B0044614216846FFF745
:1008C000F1FC1249206888421ED11148016D41F4A3
:1008D00080710165016D01F480710591C16C41F079
:1008E0001001C164C06C694600F0100005904FF41F
:1008F0007C400090022001900020029003900A208A
:1009000004900448FFF720FD06B010BD001000A0C1
:1009100000100240001000482DE9F843044600682A
:100920000026BB4D00035ED5A86D0027C00008D48B
:10093000A86D40F08050A865A86D012700F0805098
:100940000090DFF8D092D9F8001041F48071C9F816
:100950000010FFF7E3FD804606E000BFFFF7DEFD75
:10096000A0EB080002282BD8D9F80000C005F5D567
:10097000D5F8900010F4407014D0216D814211D050
:10098000D5F89000D5F8901020F4407041F48031F3
:10099000C5F89010D5F8901021F48031C5F890106A
:1009A000C5F89000C00711D0FFF7B8FD804641F2AE
:1009B000883907E0FFF7B2FDA0EB0801494501D9EE
:1009C00003260BE0D5F890008007F3D5D5F890000A
:1009D000216D20F440700843C5F890001FB1A86D48
:1009E00020F08050A8652078C00707D0D5F888008F
:1009F000616820F003000843C5F88800207880076C
:100A000007D5D5F88800A16820F00C000843C5F888
:100A100088002078400707D5D5F88800E16820F0E5
:100A200030000843C5F888002078000707D5D5F8BE
:100A30008800216920F0C0000843C5F888002078AC
:100A4000C00607D5D5F88800616920F440700843D6
:100A5000C5F888002078800607D5D5F88800A169F8
:100A600020F440600843C5F888002078400607D588
:100A7000D5F88800E16920F440500843C5F88800A3
:100A80002078000607D5D5F88800216A20F4404078
:100A90000843C5F888002088C00507D5D5F8880028
:100AA000616A20F440300843C5F88800206880035C
:100AB00007D5D5F89C00A16A20F003000843C5F8CB
:100AC0009C002088800507D5D5F88800E16A20F4CD
:100AD00040200843C5F88800208840050FD5D5F888
:100AE0008800216B20F440100843C5F88800206B73
:100AF000B0F5801F03D1E86840F48010E8602088DA
:100B000000050FD5D5F88800616B20F4400008433C
:100B1000C5F88800606BB0F5800F03D1E86840F439
:100B20008010E8602088C0040FD5D5F88800A16B3C
:100B300020F040700843C5F88800A06BB0F1807FBA
:100B400003D1E86840F48010E86020884FF000612D
:100B500080040ED5D5F88800E26B20F04060104389
:100B6000C5F88800E06B884203D1E86840F4801043
:100B7000E860208840040ED5D5F88800226C20F06B
:100B800040601043C5F88800206C884203D1E868B3
:100B900040F48010E860208800040FD5D5F8880064
:100BA000616C20F040500843C5F88800606CB0F1DB
:100BB000805F03D1E86840F48030E8602068C003BB
:100BC0000FD5D5F88800A16C20F040400843C5F847
:100BD0008800A06CB0F1804F03D1E86840F4803009
:100BE000E860206840030FD5D5F89C00E16C20F444
:100BF00040100843C5F89C00E06CB0F5001F03D11D
:100C0000E86840F48010E8603046BDE8F8830000F2
:100C100000100240007000402DE9F0470E4605002C
:100C20004FF0000725D0DFF8AC81D8F8000000F0C5
:100C30000F00B0420CD2D8F8001021F00F01314360
:100C4000C8F80010D8F8000000F00F00B04210D132
:100C50002968614CC80741F2883A5AD06868DFF8C1
:100C60007C91032808D0022820682DD04005002858
:100C70002CDB0120BDE8F08720688001F9D5E06811
:100C800000F00302E068C0F30310401C032A19D0EF
:100C9000534A00BFB2FBF0F0E268C2F306225043B1
:100CA000E268C2F34162521C5200B0FBF2F04845C8
:100CB00017D9A06810F0F00F0CD0880711D5A868DC
:100CC00040B10EE0474AE5E78003D0E700F0B6F810
:100CD000484506D9A06820F0F00040F08000A060F0
:100CE0008027A068696820F003000843A060FFF730
:100CF00015FC814606E000BFFFF710FCA0EB0901E0
:100D000051453AD8A068696800F00C00B0EB810F3B
:100D1000F2D12868810714D5400703D5A06840F4B4
:100D2000E060A0602878000705D5A06820F4605036
:100D300040F4E060A060A068A96820F0F0000843DB
:100D400004E0802F03D1A06820F0F000A060D8F864
:100D50000010404601F00F01B14216D9016821F0A0
:100D60000F0131430160FFF7D9FB074607E000BFE1
:100D7000FFF7D4FBC11B514501D903207AE7D8F80E
:100D8000000000F00F00B042F2D12878400705D5EE
:100D9000A068E96820F4E0600843A06028780007B4
:100DA00006D5A068296920F4605040EAC100A0601F
:100DB00000F044F8A1680C4AC1F30311515C01F042
:100DC0001F01C8400949086009480068BDE8F047AC
:100DD000FFF7C2BB002002400010024000B4C40470
:100DE0000024F40000366E01981D00080C0000205D
:100DF000000000200548064900688968054AC1F3DB
:100E00000221515C01F01F01C84070470C00002016
:100E100000100240A81D00080548064900688968BE
:100E2000054AC1F3C221515C01F01F01C84070475F
:100E30000C00002000100240A81D0008184910B541
:100E40008868C0F381021748012A0BD08A68164BC4
:100E5000C2F38102022A06D08A68C2F38102032A01
:100E600003D0002010BD184610BDCA6802F003046C
:100E7000CA68C2F30312521C032C02D0B0FBF2F07A
:100E800001E0B3FBF2F0CA68C968C2F3062250431E
:100E9000C1F34161491C4900B0FBF1F010BD0000F5
:100EA000001002400024F40000366E012DE9F843E2
:100EB00004007AD02078FA4DC00747D0A868E968C6
:100EC00000F00C0001F003010C2802D0082817D014
:100ED00001E0032914D06068B0F5803F17D0B0F569
:100EE000A02F286817D020F480302860286820F4CC
:100EF000802028606068E0B1FFF710FB064614E030
:100F00002868800322D560680028D2D01EE02868B7
:100F100040F48030EDE740F480202860F7E700BF20
:100F2000FFF7FCFA801B642870D828688003F7D587
:100F30000CE0FFF7F3FA064605E000BFFFF7EEFA14
:100F4000801B6428F0D828688003F7D420788007B5
:100F50004CD5A868E96800F00C0001F003010C28EA
:100F600002D004280DD001E002290AD0E068002850
:100F700028682BD040F480702860FFF7CFFA06462F
:100F800019E02868400502D5E068002891D068681B
:100F9000217C20F0FE4040EA01606860C1480068A2
:100FA000FFF7DAFA002800D120E076E1FFF7B6FA81
:100FB000801B0228B8D828684005F7D56868217CCE
:100FC00020F0FE4040EA016068600FE020F480708D
:100FD0002860FFF7A3FA064605E000BFFFF79EFA78
:100FE000801B0228A0D828684005F7D42078000785
:100FF00029D560690028D5F8940013D040F001008D
:10100000C5F89400FFF78AFA064606E090E000BFB4
:10101000FFF784FA801B022886D8D5F89400800751
:10102000F6D510E020F00100C5F89400FFF776FA3D
:10103000064604E0FFF772FA801B022878D8D5F83C
:1010400094008007F6D42078400761D5A86D00266B
:10105000C00008D4A86D40F08050A865A86D012696
:1010600000F08050009090480168C90511D40168D3
:10107000804641F480710160FFF750FA074604E0B2
:10108000FFF74CFAC01B022852D8D8F80000C00560
:10109000F6D5A068012815D00528D5F8900016D0FF
:1010A00020F00100C5F89000D5F8900020F0040071
:1010B000C5F89000A06841F28838B8B1FFF72EFA61
:1010C00007460EE0D5F8900040F00100F0E740F050
:1010D0000400C5F89000F5E7FFF720FAC11B414571
:1010E00026D8D5F890008007F6D50CE0FFF716FA61
:1010F000074604E0FFF712FAC11B414518D8D5F89E
:1011000090008007F6D41EB1A86D20F08050A8652D
:101110002078800629D5A0690028D5F8980013D03A
:1011200040F00100C5F89800FFF7F8F9064606E020
:1011300077E000BFFFF7F2F9801B022877D8D5F8D7
:1011400098008007F6D510E020F00100C5F898005F
:10115000FFF7E4F9064604E0FFF7E0F9801B0228F8
:1011600065D8D5F898008007F6D4E069F0B3A9688F
:10117000C1F38101032961D00228286820F0807022
:1011800028600BD0E86820F00300E860E868474971
:101190000840E860FFF7C2F904464BE0FFF7BEF9EC
:1011A000064604E0FFF7BAF9801B02283FD82868FA
:1011B0008001F7D4F4E908016FF00F0202EB01118E
:1011C0000843218A5204490802EB4151A26841EACE
:1011D00002210843217D4FF07E42490802EB416124
:1011E0000843217B40EAC160E96800E062E0304AE0
:1011F00011400843E860286840F080702860E86883
:1012000040F08070E860FFF789F9044605E000BF10
:10121000FFF784F9001B022809D828688001F7D558
:1012200048E004E0FFF77AF9001B022802D9032006
:10123000BDE8F88328688001F4D43BE00128F7D0AA
:10124000E868226A00F00301914226D1616A00F049
:10125000F0020901103991421FD1A26A00F4FE4147
:10126000B1EB022F19D194F82C2000F07841B1EBAA
:10127000C26F12D1218E00F4C00249084905A1F5C0
:101280000011914209D194F8341000F0C06049086F
:101290004906A1F1007181420CD00120C8E700008D
:1012A000001002400000002000700040FFFFEEFE32
:1012B0000C809F010020BBE710B5401EB0F1807F7D
:1012C00001D3012010BD4FF0E02460610F216017B1
:1012D00000F0D4FC0020A06107202061002010BD98
:1012E00090F88010012918D0012180F88010242165
:1012F000C0F8841050F8641B0A680B6823F00103DF
:101300000B6022F000510022026050F8643C19602A
:10131000202101620277104670470220704770B5A5
:10132000044690F8800001281DD0012084F8800038
:101330002420C4F8840020680568026822F00102B5
:1013400002602068826822F060620A438260204660
:1013500000F024FA206805602020C4F884000020F2
:1013600084F8800070BD022070BD70B5044690F80E
:10137000800001281DD0012084F880002420C4F8BA
:10138000840020680568026822F00102026020687B
:10139000826822F060420A438260204600F0FEF933
:1013A000206805602020C4F88400002084F88000B4
:1013B00070BD022070BD10B5040003D0D4F88400C5
:1013C00010B107E0012010BD002084F88000204605
:1013D00000F026F82420C4F884002068016821F079
:1013E00001010160204600F08FFA0128EBD0A06ACD
:1013F00010B1204600F0F4F92068416821F49041D2
:1014000041602068816821F02A01816020680168BC
:1014100041F0010101602046BDE8104000F044BAEF
:1014200010B586B0044614216846FEF73BFF134909
:10143000206888421FD11248016E41F48041016644
:10144000016E01F480410591C16C41F00101C1645C
:10145000C06C694600F0010005904FF4C060009038
:1014600002200190002002900390072004904FF08A
:101470009040FEF769FF06B010BD00000038014043
:10148000001002402DE9F8430446D0F884001F46BE
:1014900016460D46202851D1DDB1D6B194F8800012
:1014A00001284BD0012084F880004FF00008C4F8D8
:1014B0008C802120C4F884001834FFF72FF8A68709
:1014C0008146E68754F8100C183CB0F5805F03D0D5
:1014D00004E00120BDE8F883206920B12E460025F4
:1014E00084F8808010E00026FAE78021204600F092
:1014F00059FBB8B9C6B116F8010B21688862B4F877
:101500005600401EA4F85600B4F856004B464FF063
:10151000000200970028E8D14FF04001204600F07B
:1015200041FB30B10320D5E735F8020BC0F30800CA
:10153000E3E72020C4F884000020CBE70220C9E7BD
:10154000FEE7000030B587B014216846FEF7AAFE1A
:101550001D48C16C41F01001C164C16C01F0100163
:101560000591C16C41F00401C164C16C01F004013A
:101570000591C16C41F02001C164C16C01F02001F2
:101580000591C16C41F00101C164C06C0F4D00F0C8
:1015900001000590012228212846FEF7B9FF00240A
:1015A0000420CDE90004694628460294FEF7CCFEEB
:1015B000282000900120CDE90104694628460394C3
:1015C000FEF7C2FE07B030BD001002400010004818
:1015D0000C4810B50A490160FF210122C0E901123F
:1015E0000021C0E9031241618161C1610162FFF71D
:1015F00005F9002803D0BDE81040FEF791BE10BDEC
:10160000001000A014000020184810B51649016011
:101610004FF4E1314160002181600C22C160C0E9DA
:1016200004128161C161016241628162FFF7C3FE00
:1016300008B1FEF775FE00210C48FFF796FE08B1D1
:10164000FEF76EFE00210948FFF769FE08B1FEF7BC
:1016500067FE0648FFF744FE002803D0BDE81040AF
:10166000FEF75EBE10BD00000038014060000020A3
:101670000C4810B50A4901600821416002218160CF
:101680000161002141618161C1610162FEF7E2FFF8
:10169000002803D0BDE81040FEF742BE10BD000098
:1016A000005C0040F0000020FEE7FEE770472DE9F7
:1016B000F041984616460F460446069D08E0681C11
:1016C00006D0FEF72BFFA0EB0800A8420AD84DB1C8
:1016D00020688068384000D00120B042EFD100205F
:1016E000BDE8F081042084F84100606C40F0010006
:1016F00060640120F4E77047FEF716BF10B5A8B08C
:10170000382115A8FEF7CEFD142123A8FEF7CAFD47
:1017100054216846FEF7C6FD0020FFF709F8212096
:1017200015904FF48030169001201B900220032466
:1017300006211C90CDE91D415521CDE91F102190B6
:10174000229015A8FFF7B2FB08B172B6FEE70F2092
:10175000CDE92304002425942694042123A827946A
:10176000FFF75AFA08B172B6FEE70748CDE9000460
:101770000F9468461394FFF7CFF8002801D072B693
:10178000FEE728B010BD00000120040002480168F7
:1017900041F470010160704788ED00E030B5416EA2
:1017A000B9B1026891689268C1F342610B4B520F64
:1017B0009C5CE50003F10804A25CB5FBF2F2A0F822
:1017C0006A205A5C615CD200B2FBF1F1A0F86810AB
:1017D00030BD0121A0F86A10F8E70000881D00085C
:1017E00090F82810C90706D001684A68C36A22F435
:1017F00000321A434A6090F82810890706D501681C
:101800004A68036B22F480321A434A6090F8281029
:10181000490706D501684A68436B22F480221A43BF
:101820004A6090F82810090706D501684A68836B5A
:1018300022F400421A434A6090F82810C90606D5DF
:1018400001688A68C36B22F480521A438A6090F858
:101850002810890606D501688A68036C22F40052B4
:101860001A438A6090F82810490611D501684A6821
:10187000436C22F480121A434A60416CB1F5801F18
:1018800006D101684A68836C22F4C0021A434A6098
:1018900090F82810090606D501684A68C06C22F441
:1018A000002202434A607047F8B500260446C0F89B
:1018B0008C60FEF733FE0546206800686FF07E47B7
:1018C000000708D52B4600224FF400112046009750
:1018D00000F068F960B92068006840070AD52B4617
:1018E00000224FF480012046009700F05BF908B118
:1018F0000320F8BD2020C4F88400C4F8880044F810
:101900006C6F00202675F8BD2DE9F0410446016892
:1019100080682269E3691043626900251A43104315
:10192000DFF850C20A68944B1A4002430A602068EC
:101930004168E26821F44051114341602168A06987
:10194000614501D0226A10438A688C4B1A400243D9
:101950008A602068C16A626A21F00F011143C16286
:101960008749236887488B420DD1D0F8880010F052
:10197000030006D0012867D0022854D0032851D193
:1019800064E001204FE080498B420BD1D0F8880001
:1019900010F00C0047D0042845D0082852D00C285D
:1019A00040D153E079498B420BD1D0F8880010F038
:1019B000300038D0102847D0202843D0302831D1EB
:1019C00044E073498B420BD1D0F8880010F0C0007E
:1019D00029D0402838D0802834D0C02822D135E002
:1019E0006C498B420ED1D0F8880010F440701AD0A8
:1019F000B0F5807F28D0B0F5007F23D0B0F5407FD0
:101A000010D123E063450DD1D0F8880010F4406078
:101A100009D0B0F5806F17D0B0F5006F12D0B0F5D7
:101A2000406F13D010205C4A5C4F00264FF40041F9
:101A3000634539D160B102280DD004280DD00828A3
:101A400031D10EE00220EEE70420ECE70820EAE7BF
:101A5000FFF7D0F903E0114603E0FFF7EFF90100CB
:101A60007DD0606A37F810206768B1FBF2F007EBB1
:101A7000470383426CD8B0EB073F69D80023084680
:101A80001946FEF7C5FB090241EA10610202780817
:101A9000101871413A460023FEF7BAFB404AA0F500
:101AA0004071914259D953E0E3694FF6EF788B4288
:101AB0002DD109284CD2DFE800F005080D4B274B4B
:101AC0004B4B0E00FFF796F901E0FFF7A5F9010077
:101AD00001D144E01146606A37F81000B1FBF0F024
:101AE0004100606801EB5001B1FBF0F080B2A0F161
:101AF000100141452CD84FF6F0710140C0F342006F
:101B000001432068C1602AE0FFF798F9DFE7092860
:101B10001ED2DFE800F005080D1D1F1D1D1D0E0063
:101B2000FFF768F901E0FFF777F9010001D116E04E
:101B30001146606A37F81000B1FBF0F1606801EB04
:101B40005001B1FBF0F080B2A0F11001414504D981
:101B5000012504E0FFF772F9E7E72168C86001207A
:101B6000A4F86A0024F8680F2846A660E660BDE87D
:101B7000F081000000800040F369FFCFFFF4FF1107
:101B8000003801400010024000440040004800407E
:101B9000004C0040005000400024F400701D00087C
:101BA000FFFC0F002DE9F0479A4617460E46044603
:101BB0004FF000094FF02008089D39E0681C37D02D
:101BC000FEF7ACFCA0EB0A00A84222D80DB32068B7
:101BD000016849072CD5C069C043000528D4216895
:101BE0004FF4006008622068016821F4D071016040
:101BF0002068816821F001018160C4F88480C4F804
:101C00008880C4F88C8000BF84F880900320BDE8F1
:101C1000F0872068016821F4D07101602068816834
:101C200021F001018160C4F88480C4F88880EBE76A
:101C30002068C06936EA000004D00020B842BDD058
:101C40000020E4E70120F9E7012120F8401F0021EE
:101C50000180818001820846704730F8401F4BF6B2
:101C600080729143018000207047FEE7014A0249DB
:101C700000F023B8DD1C0008100000200907090E41
:101C8000002804DB00F1E02080F80014704700F029
:101C90000F0000F1E02080F8141D704702E008C832
:101CA000121F08C1002AFAD170477047002001E0D6
:101CB00001C1121F002AFBD170472DE9F0411646E1
:101CC0000F460446002503E03946B047641C6D1CEE
:101CD00020780028F8D12846BDE8F08113B54FF4EC
:101CE0007A73012269460248FFF7CCFB00981CBDBD
:101CF00060000020FEF720FCFFF700FDFFF722FC4C
:101D0000FFF782FCFFF764FCFFF7B2FC114D4FF4C4
:101D1000FA7411A0FFF7AAFF002220212846FEF73F
:101D2000F7FB012208212846FEF7F2FB2046FEF7CA
:101D3000F9FA0CA0FFF79AFF012220212846FEF7AE
:101D4000E7FB002208212846FEF7E2FB2046FEF7CB
:101D5000E9FADEE700100048BAECC9ABC1C10D0AD0
:101D600000000000C2CCC9ABC1C10D0A00000000D8
:101D7000010002000400060008000A000C00100028
:101D80002000400080000001010101030701000064
:101D90000804020408010101000000000000000026
:101DA0000102030406070809000000000102030401
:101DB000D01D000800000020140000009C1C00083A
:101DC000E41D000814000020D4070000AC1C00082B
:101DD0001000000001000000000000000024F400DA
:041DE00000000000FF
:04000005080001D915
:00000001FF
